{
  "_format": "hh-sol-artifact-1",
  "contractName": "Vault",
  "sourceName": "contracts/Vault.sol",
  "abi": [
    {
      "inputs": [
        {
          "internalType": "address",
          "name": "_supportedNFTContract",
          "type": "address"
        }
      ],
      "stateMutability": "nonpayable",
      "type": "constructor"
    },
    {
      "inputs": [],
      "name": "ReentrancyGuardReentrantCall",
      "type": "error"
    },
    {
      "anonymous": false,
      "inputs": [
        {
          "indexed": true,
          "internalType": "address",
          "name": "owner",
          "type": "address"
        },
        {
          "indexed": false,
          "internalType": "uint256",
          "name": "tokenId",
          "type": "uint256"
        },
        {
          "indexed": false,
          "internalType": "uint256",
          "name": "amount",
          "type": "uint256"
        }
      ],
      "name": "NFTDeposited",
      "type": "event"
    },
    {
      "anonymous": false,
      "inputs": [
        {
          "indexed": true,
          "internalType": "address",
          "name": "owner",
          "type": "address"
        },
        {
          "indexed": false,
          "internalType": "uint256",
          "name": "tokenId",
          "type": "uint256"
        },
        {
          "indexed": false,
          "internalType": "uint256",
          "name": "amount",
          "type": "uint256"
        }
      ],
      "name": "NFTWithdrawn",
      "type": "event"
    },
    {
      "inputs": [
        {
          "internalType": "uint256",
          "name": "_tokenId",
          "type": "uint256"
        },
        {
          "internalType": "uint256",
          "name": "_amount",
          "type": "uint256"
        }
      ],
      "name": "deposit",
      "outputs": [],
      "stateMutability": "nonpayable",
      "type": "function"
    },
    {
      "inputs": [
        {
          "internalType": "uint256",
          "name": "_tokenId",
          "type": "uint256"
        }
      ],
      "name": "getTotalVaultBalance",
      "outputs": [
        {
          "internalType": "uint256",
          "name": "",
          "type": "uint256"
        }
      ],
      "stateMutability": "view",
      "type": "function"
    },
    {
      "inputs": [
        {
          "internalType": "address",
          "name": "_user",
          "type": "address"
        },
        {
          "internalType": "uint256",
          "name": "_tokenId",
          "type": "uint256"
        }
      ],
      "name": "getVaultBalance",
      "outputs": [
        {
          "internalType": "uint256",
          "name": "",
          "type": "uint256"
        }
      ],
      "stateMutability": "view",
      "type": "function"
    },
    {
      "inputs": [
        {
          "internalType": "address",
          "name": "",
          "type": "address"
        },
        {
          "internalType": "address",
          "name": "",
          "type": "address"
        },
        {
          "internalType": "uint256[]",
          "name": "",
          "type": "uint256[]"
        },
        {
          "internalType": "uint256[]",
          "name": "",
          "type": "uint256[]"
        },
        {
          "internalType": "bytes",
          "name": "",
          "type": "bytes"
        }
      ],
      "name": "onERC1155BatchReceived",
      "outputs": [
        {
          "internalType": "bytes4",
          "name": "",
          "type": "bytes4"
        }
      ],
      "stateMutability": "nonpayable",
      "type": "function"
    },
    {
      "inputs": [
        {
          "internalType": "address",
          "name": "",
          "type": "address"
        },
        {
          "internalType": "address",
          "name": "",
          "type": "address"
        },
        {
          "internalType": "uint256",
          "name": "",
          "type": "uint256"
        },
        {
          "internalType": "uint256",
          "name": "",
          "type": "uint256"
        },
        {
          "internalType": "bytes",
          "name": "",
          "type": "bytes"
        }
      ],
      "name": "onERC1155Received",
      "outputs": [
        {
          "internalType": "bytes4",
          "name": "",
          "type": "bytes4"
        }
      ],
      "stateMutability": "nonpayable",
      "type": "function"
    },
    {
      "inputs": [],
      "name": "supportedNFTContract",
      "outputs": [
        {
          "internalType": "address",
          "name": "",
          "type": "address"
        }
      ],
      "stateMutability": "view",
      "type": "function"
    },
    {
      "inputs": [
        {
          "internalType": "bytes4",
          "name": "interfaceId",
          "type": "bytes4"
        }
      ],
      "name": "supportsInterface",
      "outputs": [
        {
          "internalType": "bool",
          "name": "",
          "type": "bool"
        }
      ],
      "stateMutability": "view",
      "type": "function"
    },
    {
      "inputs": [
        {
          "internalType": "uint256",
          "name": "_tokenId",
          "type": "uint256"
        },
        {
          "internalType": "uint256",
          "name": "_amount",
          "type": "uint256"
        }
      ],
      "name": "withdraw",
      "outputs": [],
      "stateMutability": "nonpayable",
      "type": "function"
    }
  ],
  "bytecode": "0x60a06040523480156200001157600080fd5b506040516200146138038062001461833981810160405281019062000037919062000156565b6001600081905550600073ffffffffffffffffffffffffffffffffffffffff168173ffffffffffffffffffffffffffffffffffffffff1603620000b1576040517f08c379a0000000000000000000000000000000000000000000000000000000008152600401620000a890620001e9565b60405180910390fd5b8073ffffffffffffffffffffffffffffffffffffffff1660808173ffffffffffffffffffffffffffffffffffffffff1681525050506200020b565b600080fd5b600073ffffffffffffffffffffffffffffffffffffffff82169050919050565b60006200011e82620000f1565b9050919050565b620001308162000111565b81146200013c57600080fd5b50565b600081519050620001508162000125565b92915050565b6000602082840312156200016f576200016e620000ec565b5b60006200017f848285016200013f565b91505092915050565b600082825260208201905092915050565b7f496e76616c6964204e465420636f6e7472616374206164647265737300000000600082015250565b6000620001d1601c8362000188565b9150620001de8262000199565b602082019050919050565b600060208201905081810360008301526200020481620001c2565b9050919050565b6080516112256200023c600039600081816102ac0152818161034e01528181610452015261060401526112256000f3fe608060405234801561001057600080fd5b50600436106100885760003560e01c8063441a3e701161005b578063441a3e701461013b578063bc197c8114610157578063e2bbb15814610187578063f23a6e61146101a357610088565b806301ffc9a71461008d57806309b57808146100bd5780632744da29146100ed5780633ff059c51461011d575b600080fd5b6100a760048036038101906100a2919061094a565b6101d3565b6040516100b49190610992565b60405180910390f35b6100d760048036038101906100d29190610a41565b61024d565b6040516100e49190610a90565b60405180910390f35b61010760048036038101906101029190610aab565b6102a8565b6040516101149190610a90565b60405180910390f35b61012561034c565b6040516101329190610ae7565b60405180910390f35b61015560048036038101906101509190610b02565b610370565b005b610171600480360381019061016c9190610d50565b6105a8565b60405161017e9190610e2e565b60405180910390f35b6101a1600480360381019061019c9190610b02565b6105bd565b005b6101bd60048036038101906101b89190610e49565b61080f565b6040516101ca9190610e2e565b60405180910390f35b60007f4e2312e0000000000000000000000000000000000000000000000000000000007bffffffffffffffffffffffffffffffffffffffffffffffffffffffff1916827bffffffffffffffffffffffffffffffffffffffffffffffffffffffff19161480610246575061024582610824565b5b9050919050565b6000600160008473ffffffffffffffffffffffffffffffffffffffff1673ffffffffffffffffffffffffffffffffffffffff168152602001908152602001600020600083815260200190815260200160002054905092915050565b60007f000000000000000000000000000000000000000000000000000000000000000073ffffffffffffffffffffffffffffffffffffffff1662fdd58e30846040518363ffffffff1660e01b8152600401610304929190610ee0565b602060405180830381865afa158015610321573d6000803e3d6000fd5b505050506040513d601f19601f820116820180604052508101906103459190610f1e565b9050919050565b7f000000000000000000000000000000000000000000000000000000000000000081565b61037861088e565b600081116103bb576040517f08c379a00000000000000000000000000000000000000000000000000000000081526004016103b290610fa8565b60405180910390fd5b80600160003373ffffffffffffffffffffffffffffffffffffffff1673ffffffffffffffffffffffffffffffffffffffff168152602001908152602001600020600084815260200190815260200160002054101561044e576040517f08c379a000000000000000000000000000000000000000000000000000000000815260040161044590611014565b60405180910390fd5b60007f0000000000000000000000000000000000000000000000000000000000000000905081600160003373ffffffffffffffffffffffffffffffffffffffff1673ffffffffffffffffffffffffffffffffffffffff168152602001908152602001600020600085815260200190815260200160002060008282546104d39190611063565b925050819055508073ffffffffffffffffffffffffffffffffffffffff1663f242432a303386866040518563ffffffff1660e01b815260040161051994939291906110ce565b600060405180830381600087803b15801561053357600080fd5b505af1158015610547573d6000803e3d6000fd5b505050503373ffffffffffffffffffffffffffffffffffffffff167f8e52db99ce3ea11f5ce05e25a6d21952ef9c65a56f572b7b6039f3dc608808c88484604051610593929190611126565b60405180910390a2506105a46108d4565b5050565b600063bc197c8160e01b905095945050505050565b60008111610600576040517f08c379a00000000000000000000000000000000000000000000000000000000081526004016105f790610fa8565b60405180910390fd5b60007f00000000000000000000000000000000000000000000000000000000000000009050818173ffffffffffffffffffffffffffffffffffffffff1662fdd58e33866040518363ffffffff1660e01b8152600401610660929190610ee0565b602060405180830381865afa15801561067d573d6000803e3d6000fd5b505050506040513d601f19601f820116820180604052508101906106a19190610f1e565b10156106e2576040517f08c379a00000000000000000000000000000000000000000000000000000000081526004016106d99061119b565b60405180910390fd5b8073ffffffffffffffffffffffffffffffffffffffff1663f242432a333086866040518563ffffffff1660e01b815260040161072194939291906110ce565b600060405180830381600087803b15801561073b57600080fd5b505af115801561074f573d6000803e3d6000fd5b5050505081600160003373ffffffffffffffffffffffffffffffffffffffff1673ffffffffffffffffffffffffffffffffffffffff168152602001908152602001600020600085815260200190815260200160002060008282546107b391906111bb565b925050819055503373ffffffffffffffffffffffffffffffffffffffff167fdeba2d4291edd2e29ef127ea6e31f12ebb9adc96b42605081927d379bdcb8bed8484604051610802929190611126565b60405180910390a2505050565b600063f23a6e6160e01b905095945050505050565b60007f01ffc9a7000000000000000000000000000000000000000000000000000000007bffffffffffffffffffffffffffffffffffffffffffffffffffffffff1916827bffffffffffffffffffffffffffffffffffffffffffffffffffffffff1916149050919050565b6002600054036108ca576040517f3ee5aeb500000000000000000000000000000000000000000000000000000000815260040160405180910390fd5b6002600081905550565b6001600081905550565b6000604051905090565b600080fd5b600080fd5b60007fffffffff0000000000000000000000000000000000000000000000000000000082169050919050565b610927816108f2565b811461093257600080fd5b50565b6000813590506109448161091e565b92915050565b6000602082840312156109605761095f6108e8565b5b600061096e84828501610935565b91505092915050565b60008115159050919050565b61098c81610977565b82525050565b60006020820190506109a76000830184610983565b92915050565b600073ffffffffffffffffffffffffffffffffffffffff82169050919050565b60006109d8826109ad565b9050919050565b6109e8816109cd565b81146109f357600080fd5b50565b600081359050610a05816109df565b92915050565b6000819050919050565b610a1e81610a0b565b8114610a2957600080fd5b50565b600081359050610a3b81610a15565b92915050565b60008060408385031215610a5857610a576108e8565b5b6000610a66858286016109f6565b9250506020610a7785828601610a2c565b9150509250929050565b610a8a81610a0b565b82525050565b6000602082019050610aa56000830184610a81565b92915050565b600060208284031215610ac157610ac06108e8565b5b6000610acf84828501610a2c565b91505092915050565b610ae1816109cd565b82525050565b6000602082019050610afc6000830184610ad8565b92915050565b60008060408385031215610b1957610b186108e8565b5b6000610b2785828601610a2c565b9250506020610b3885828601610a2c565b9150509250929050565b600080fd5b6000601f19601f8301169050919050565b7f4e487b7100000000000000000000000000000000000000000000000000000000600052604160045260246000fd5b610b9082610b47565b810181811067ffffffffffffffff82111715610baf57610bae610b58565b5b80604052505050565b6000610bc26108de565b9050610bce8282610b87565b919050565b600067ffffffffffffffff821115610bee57610bed610b58565b5b602082029050602081019050919050565b600080fd5b6000610c17610c1284610bd3565b610bb8565b90508083825260208201905060208402830185811115610c3a57610c39610bff565b5b835b81811015610c635780610c4f8882610a2c565b845260208401935050602081019050610c3c565b5050509392505050565b600082601f830112610c8257610c81610b42565b5b8135610c92848260208601610c04565b91505092915050565b600080fd5b600067ffffffffffffffff821115610cbb57610cba610b58565b5b610cc482610b47565b9050602081019050919050565b82818337600083830152505050565b6000610cf3610cee84610ca0565b610bb8565b905082815260208101848484011115610d0f57610d0e610c9b565b5b610d1a848285610cd1565b509392505050565b600082601f830112610d3757610d36610b42565b5b8135610d47848260208601610ce0565b91505092915050565b600080600080600060a08688031215610d6c57610d6b6108e8565b5b6000610d7a888289016109f6565b9550506020610d8b888289016109f6565b945050604086013567ffffffffffffffff811115610dac57610dab6108ed565b5b610db888828901610c6d565b935050606086013567ffffffffffffffff811115610dd957610dd86108ed565b5b610de588828901610c6d565b925050608086013567ffffffffffffffff811115610e0657610e056108ed565b5b610e1288828901610d22565b9150509295509295909350565b610e28816108f2565b82525050565b6000602082019050610e436000830184610e1f565b92915050565b600080600080600060a08688031215610e6557610e646108e8565b5b6000610e73888289016109f6565b9550506020610e84888289016109f6565b9450506040610e9588828901610a2c565b9350506060610ea688828901610a2c565b925050608086013567ffffffffffffffff811115610ec757610ec66108ed565b5b610ed388828901610d22565b9150509295509295909350565b6000604082019050610ef56000830185610ad8565b610f026020830184610a81565b9392505050565b600081519050610f1881610a15565b92915050565b600060208284031215610f3457610f336108e8565b5b6000610f4284828501610f09565b91505092915050565b600082825260208201905092915050565b7f416d6f756e74206d7573742062652067726561746572207468616e2030000000600082015250565b6000610f92601d83610f4b565b9150610f9d82610f5c565b602082019050919050565b60006020820190508181036000830152610fc181610f85565b9050919050565b7f496e73756666696369656e742062616c616e636520696e207661756c74000000600082015250565b6000610ffe601d83610f4b565b915061100982610fc8565b602082019050919050565b6000602082019050818103600083015261102d81610ff1565b9050919050565b7f4e487b7100000000000000000000000000000000000000000000000000000000600052601160045260246000fd5b600061106e82610a0b565b915061107983610a0b565b925082820390508181111561109157611090611034565b5b92915050565b600082825260208201905092915050565b50565b60006110b8600083611097565b91506110c3826110a8565b600082019050919050565b600060a0820190506110e36000830187610ad8565b6110f06020830186610ad8565b6110fd6040830185610a81565b61110a6060830184610a81565b818103608083015261111b816110ab565b905095945050505050565b600060408201905061113b6000830185610a81565b6111486020830184610a81565b9392505050565b7f496e73756666696369656e742062616c616e6365000000000000000000000000600082015250565b6000611185601483610f4b565b91506111908261114f565b602082019050919050565b600060208201905081810360008301526111b481611178565b9050919050565b60006111c682610a0b565b91506111d183610a0b565b92508282019050808211156111e9576111e8611034565b5b9291505056fea264697066735822122010fae1208e2b105583b5ce30a0350c06744cd819c6e42b2915bf092c7b0c94cb64736f6c63430008180033",
  "linkReferences": {},
  "deployedLinkReferences": {}
}