{
  "_format": "hh-sol-artifact-1",
  "contractName": "CareerOtomeNFT",
  "sourceName": "contracts/CareerOtomeNFT.sol",
  "abi": [
    {
      "inputs": [
        {
          "internalType": "address",
          "name": "defaultAdmin",
          "type": "address"
        },
        {
          "internalType": "string",
          "name": "initialUri",
          "type": "string"
        }
      ],
      "stateMutability": "nonpayable",
      "type": "constructor"
    },
    {
      "inputs": [],
      "name": "AccessControlBadConfirmation",
      "type": "error"
    },
    {
      "inputs": [
        {
          "internalType": "address",
          "name": "account",
          "type": "address"
        },
        {
          "internalType": "bytes32",
          "name": "neededRole",
          "type": "bytes32"
        }
      ],
      "name": "AccessControlUnauthorizedAccount",
      "type": "error"
    },
    {
      "inputs": [
        {
          "internalType": "address",
          "name": "sender",
          "type": "address"
        },
        {
          "internalType": "uint256",
          "name": "balance",
          "type": "uint256"
        },
        {
          "internalType": "uint256",
          "name": "needed",
          "type": "uint256"
        },
        {
          "internalType": "uint256",
          "name": "tokenId",
          "type": "uint256"
        }
      ],
      "name": "ERC1155InsufficientBalance",
      "type": "error"
    },
    {
      "inputs": [
        {
          "internalType": "address",
          "name": "approver",
          "type": "address"
        }
      ],
      "name": "ERC1155InvalidApprover",
      "type": "error"
    },
    {
      "inputs": [
        {
          "internalType": "uint256",
          "name": "idsLength",
          "type": "uint256"
        },
        {
          "internalType": "uint256",
          "name": "valuesLength",
          "type": "uint256"
        }
      ],
      "name": "ERC1155InvalidArrayLength",
      "type": "error"
    },
    {
      "inputs": [
        {
          "internalType": "address",
          "name": "operator",
          "type": "address"
        }
      ],
      "name": "ERC1155InvalidOperator",
      "type": "error"
    },
    {
      "inputs": [
        {
          "internalType": "address",
          "name": "receiver",
          "type": "address"
        }
      ],
      "name": "ERC1155InvalidReceiver",
      "type": "error"
    },
    {
      "inputs": [
        {
          "internalType": "address",
          "name": "sender",
          "type": "address"
        }
      ],
      "name": "ERC1155InvalidSender",
      "type": "error"
    },
    {
      "inputs": [
        {
          "internalType": "address",
          "name": "operator",
          "type": "address"
        },
        {
          "internalType": "address",
          "name": "owner",
          "type": "address"
        }
      ],
      "name": "ERC1155MissingApprovalForAll",
      "type": "error"
    },
    {
      "anonymous": false,
      "inputs": [
        {
          "indexed": true,
          "internalType": "address",
          "name": "account",
          "type": "address"
        },
        {
          "indexed": true,
          "internalType": "address",
          "name": "operator",
          "type": "address"
        },
        {
          "indexed": false,
          "internalType": "bool",
          "name": "approved",
          "type": "bool"
        }
      ],
      "name": "ApprovalForAll",
      "type": "event"
    },
    {
      "anonymous": false,
      "inputs": [
        {
          "indexed": true,
          "internalType": "bytes32",
          "name": "role",
          "type": "bytes32"
        },
        {
          "indexed": true,
          "internalType": "bytes32",
          "name": "previousAdminRole",
          "type": "bytes32"
        },
        {
          "indexed": true,
          "internalType": "bytes32",
          "name": "newAdminRole",
          "type": "bytes32"
        }
      ],
      "name": "RoleAdminChanged",
      "type": "event"
    },
    {
      "anonymous": false,
      "inputs": [
        {
          "indexed": true,
          "internalType": "bytes32",
          "name": "role",
          "type": "bytes32"
        },
        {
          "indexed": true,
          "internalType": "address",
          "name": "account",
          "type": "address"
        },
        {
          "indexed": true,
          "internalType": "address",
          "name": "sender",
          "type": "address"
        }
      ],
      "name": "RoleGranted",
      "type": "event"
    },
    {
      "anonymous": false,
      "inputs": [
        {
          "indexed": true,
          "internalType": "bytes32",
          "name": "role",
          "type": "bytes32"
        },
        {
          "indexed": true,
          "internalType": "address",
          "name": "account",
          "type": "address"
        },
        {
          "indexed": true,
          "internalType": "address",
          "name": "sender",
          "type": "address"
        }
      ],
      "name": "RoleRevoked",
      "type": "event"
    },
    {
      "anonymous": false,
      "inputs": [
        {
          "indexed": true,
          "internalType": "address",
          "name": "operator",
          "type": "address"
        },
        {
          "indexed": true,
          "internalType": "address",
          "name": "from",
          "type": "address"
        },
        {
          "indexed": true,
          "internalType": "address",
          "name": "to",
          "type": "address"
        },
        {
          "indexed": false,
          "internalType": "uint256[]",
          "name": "ids",
          "type": "uint256[]"
        },
        {
          "indexed": false,
          "internalType": "uint256[]",
          "name": "values",
          "type": "uint256[]"
        }
      ],
      "name": "TransferBatch",
      "type": "event"
    },
    {
      "anonymous": false,
      "inputs": [
        {
          "indexed": true,
          "internalType": "address",
          "name": "operator",
          "type": "address"
        },
        {
          "indexed": true,
          "internalType": "address",
          "name": "from",
          "type": "address"
        },
        {
          "indexed": true,
          "internalType": "address",
          "name": "to",
          "type": "address"
        },
        {
          "indexed": false,
          "internalType": "uint256",
          "name": "id",
          "type": "uint256"
        },
        {
          "indexed": false,
          "internalType": "uint256",
          "name": "value",
          "type": "uint256"
        }
      ],
      "name": "TransferSingle",
      "type": "event"
    },
    {
      "anonymous": false,
      "inputs": [
        {
          "indexed": false,
          "internalType": "string",
          "name": "value",
          "type": "string"
        },
        {
          "indexed": true,
          "internalType": "uint256",
          "name": "id",
          "type": "uint256"
        }
      ],
      "name": "URI",
      "type": "event"
    },
    {
      "inputs": [],
      "name": "DEFAULT_ADMIN_ROLE",
      "outputs": [
        {
          "internalType": "bytes32",
          "name": "",
          "type": "bytes32"
        }
      ],
      "stateMutability": "view",
      "type": "function"
    },
    {
      "inputs": [],
      "name": "MINTER_ROLE",
      "outputs": [
        {
          "internalType": "bytes32",
          "name": "",
          "type": "bytes32"
        }
      ],
      "stateMutability": "view",
      "type": "function"
    },
    {
      "inputs": [],
      "name": "URI_SETTER_ROLE",
      "outputs": [
        {
          "internalType": "bytes32",
          "name": "",
          "type": "bytes32"
        }
      ],
      "stateMutability": "view",
      "type": "function"
    },
    {
      "inputs": [
        {
          "internalType": "address",
          "name": "account",
          "type": "address"
        },
        {
          "internalType": "uint256",
          "name": "id",
          "type": "uint256"
        }
      ],
      "name": "balanceOf",
      "outputs": [
        {
          "internalType": "uint256",
          "name": "",
          "type": "uint256"
        }
      ],
      "stateMutability": "view",
      "type": "function"
    },
    {
      "inputs": [
        {
          "internalType": "address[]",
          "name": "accounts",
          "type": "address[]"
        },
        {
          "internalType": "uint256[]",
          "name": "ids",
          "type": "uint256[]"
        }
      ],
      "name": "balanceOfBatch",
      "outputs": [
        {
          "internalType": "uint256[]",
          "name": "",
          "type": "uint256[]"
        }
      ],
      "stateMutability": "view",
      "type": "function"
    },
    {
      "inputs": [
        {
          "internalType": "bytes32",
          "name": "role",
          "type": "bytes32"
        }
      ],
      "name": "getRoleAdmin",
      "outputs": [
        {
          "internalType": "bytes32",
          "name": "",
          "type": "bytes32"
        }
      ],
      "stateMutability": "view",
      "type": "function"
    },
    {
      "inputs": [
        {
          "internalType": "bytes32",
          "name": "role",
          "type": "bytes32"
        },
        {
          "internalType": "address",
          "name": "account",
          "type": "address"
        }
      ],
      "name": "grantRole",
      "outputs": [],
      "stateMutability": "nonpayable",
      "type": "function"
    },
    {
      "inputs": [
        {
          "internalType": "bytes32",
          "name": "role",
          "type": "bytes32"
        },
        {
          "internalType": "address",
          "name": "account",
          "type": "address"
        }
      ],
      "name": "hasRole",
      "outputs": [
        {
          "internalType": "bool",
          "name": "",
          "type": "bool"
        }
      ],
      "stateMutability": "view",
      "type": "function"
    },
    {
      "inputs": [
        {
          "internalType": "address",
          "name": "account",
          "type": "address"
        },
        {
          "internalType": "address",
          "name": "operator",
          "type": "address"
        }
      ],
      "name": "isApprovedForAll",
      "outputs": [
        {
          "internalType": "bool",
          "name": "",
          "type": "bool"
        }
      ],
      "stateMutability": "view",
      "type": "function"
    },
    {
      "inputs": [
        {
          "internalType": "address",
          "name": "account",
          "type": "address"
        },
        {
          "internalType": "uint256",
          "name": "id",
          "type": "uint256"
        },
        {
          "internalType": "uint256",
          "name": "amount",
          "type": "uint256"
        }
      ],
      "name": "mint",
      "outputs": [],
      "stateMutability": "nonpayable",
      "type": "function"
    },
    {
      "inputs": [
        {
          "internalType": "address",
          "name": "to",
          "type": "address"
        },
        {
          "internalType": "uint256[]",
          "name": "ids",
          "type": "uint256[]"
        },
        {
          "internalType": "uint256[]",
          "name": "amounts",
          "type": "uint256[]"
        }
      ],
      "name": "mintBatch",
      "outputs": [],
      "stateMutability": "nonpayable",
      "type": "function"
    },
    {
      "inputs": [
        {
          "internalType": "bytes32",
          "name": "role",
          "type": "bytes32"
        },
        {
          "internalType": "address",
          "name": "callerConfirmation",
          "type": "address"
        }
      ],
      "name": "renounceRole",
      "outputs": [],
      "stateMutability": "nonpayable",
      "type": "function"
    },
    {
      "inputs": [
        {
          "internalType": "bytes32",
          "name": "role",
          "type": "bytes32"
        },
        {
          "internalType": "address",
          "name": "account",
          "type": "address"
        }
      ],
      "name": "revokeRole",
      "outputs": [],
      "stateMutability": "nonpayable",
      "type": "function"
    },
    {
      "inputs": [
        {
          "internalType": "address",
          "name": "from",
          "type": "address"
        },
        {
          "internalType": "address",
          "name": "to",
          "type": "address"
        },
        {
          "internalType": "uint256[]",
          "name": "ids",
          "type": "uint256[]"
        },
        {
          "internalType": "uint256[]",
          "name": "values",
          "type": "uint256[]"
        },
        {
          "internalType": "bytes",
          "name": "data",
          "type": "bytes"
        }
      ],
      "name": "safeBatchTransferFrom",
      "outputs": [],
      "stateMutability": "nonpayable",
      "type": "function"
    },
    {
      "inputs": [
        {
          "internalType": "address",
          "name": "from",
          "type": "address"
        },
        {
          "internalType": "address",
          "name": "to",
          "type": "address"
        },
        {
          "internalType": "uint256",
          "name": "id",
          "type": "uint256"
        },
        {
          "internalType": "uint256",
          "name": "value",
          "type": "uint256"
        },
        {
          "internalType": "bytes",
          "name": "data",
          "type": "bytes"
        }
      ],
      "name": "safeTransferFrom",
      "outputs": [],
      "stateMutability": "nonpayable",
      "type": "function"
    },
    {
      "inputs": [
        {
          "internalType": "address",
          "name": "operator",
          "type": "address"
        },
        {
          "internalType": "bool",
          "name": "approved",
          "type": "bool"
        }
      ],
      "name": "setApprovalForAll",
      "outputs": [],
      "stateMutability": "nonpayable",
      "type": "function"
    },
    {
      "inputs": [
        {
          "internalType": "string",
          "name": "newuri",
          "type": "string"
        }
      ],
      "name": "setURI",
      "outputs": [],
      "stateMutability": "nonpayable",
      "type": "function"
    },
    {
      "inputs": [
        {
          "internalType": "bytes4",
          "name": "interfaceId",
          "type": "bytes4"
        }
      ],
      "name": "supportsInterface",
      "outputs": [
        {
          "internalType": "bool",
          "name": "",
          "type": "bool"
        }
      ],
      "stateMutability": "view",
      "type": "function"
    },
    {
      "inputs": [
        {
          "internalType": "uint256",
          "name": "",
          "type": "uint256"
        }
      ],
      "name": "uri",
      "outputs": [
        {
          "internalType": "string",
          "name": "",
          "type": "string"
        }
      ],
      "stateMutability": "view",
      "type": "function"
    }
  ],
  "bytecode": "0x608060405234801561001057600080fd5b5060405161340b38038061340b83398181016040528101906100329190610417565b80610042816100c060201b60201c565b506100566000801b836100d360201b60201c565b506100877f9f2df0fed2c77648de5860a4cc508cd0818c85b8b8a1ab4ceeef8d981c8956a6836100d360201b60201c565b506100b87f7804d923f43a17d325d77e781528e0793b2edd9890ab45fc64efd7b4b427744c836100d360201b60201c565b505050610766565b80600290816100cf9190610694565b5050565b60006100e583836101d160201b60201c565b6101c65760016003600085815260200190815260200160002060000160008473ffffffffffffffffffffffffffffffffffffffff1673ffffffffffffffffffffffffffffffffffffffff16815260200190815260200160002060006101000a81548160ff02191690831515021790555061016361023c60201b60201c565b73ffffffffffffffffffffffffffffffffffffffff168273ffffffffffffffffffffffffffffffffffffffff16847f2f8788117e7eff1d82e926ec794901d17c78024a50270940304540a733656f0d60405160405180910390a4600190506101cb565b600090505b92915050565b60006003600084815260200190815260200160002060000160008373ffffffffffffffffffffffffffffffffffffffff1673ffffffffffffffffffffffffffffffffffffffff16815260200190815260200160002060009054906101000a900460ff16905092915050565b600033905090565b6000604051905090565b600080fd5b600080fd5b600073ffffffffffffffffffffffffffffffffffffffff82169050919050565b600061028382610258565b9050919050565b61029381610278565b811461029e57600080fd5b50565b6000815190506102b08161028a565b92915050565b600080fd5b600080fd5b6000601f19601f8301169050919050565b7f4e487b7100000000000000000000000000000000000000000000000000000000600052604160045260246000fd5b610309826102c0565b810181811067ffffffffffffffff82111715610328576103276102d1565b5b80604052505050565b600061033b610244565b90506103478282610300565b919050565b600067ffffffffffffffff821115610367576103666102d1565b5b610370826102c0565b9050602081019050919050565b60005b8381101561039b578082015181840152602081019050610380565b60008484015250505050565b60006103ba6103b58461034c565b610331565b9050828152602081018484840111156103d6576103d56102bb565b5b6103e184828561037d565b509392505050565b600082601f8301126103fe576103fd6102b6565b5b815161040e8482602086016103a7565b91505092915050565b6000806040838503121561042e5761042d61024e565b5b600061043c858286016102a1565b925050602083015167ffffffffffffffff81111561045d5761045c610253565b5b610469858286016103e9565b9150509250929050565b600081519050919050565b7f4e487b7100000000000000000000000000000000000000000000000000000000600052602260045260246000fd5b600060028204905060018216806104c557607f821691505b6020821081036104d8576104d761047e565b5b50919050565b60008190508160005260206000209050919050565b60006020601f8301049050919050565b600082821b905092915050565b6000600883026105407fffffffffffffffffffffffffffffffffffffffffffffffffffffffffffffffff82610503565b61054a8683610503565b95508019841693508086168417925050509392505050565b6000819050919050565b6000819050919050565b600061059161058c61058784610562565b61056c565b610562565b9050919050565b6000819050919050565b6105ab83610576565b6105bf6105b782610598565b848454610510565b825550505050565b600090565b6105d46105c7565b6105df8184846105a2565b505050565b5b81811015610603576105f86000826105cc565b6001810190506105e5565b5050565b601f82111561064857610619816104de565b610622846104f3565b81016020851015610631578190505b61064561063d856104f3565b8301826105e4565b50505b505050565b600082821c905092915050565b600061066b6000198460080261064d565b1980831691505092915050565b6000610684838361065a565b9150826002028217905092915050565b61069d82610473565b67ffffffffffffffff8111156106b6576106b56102d1565b5b6106c082546104ad565b6106cb828285610607565b600060209050601f8311600181146106fe57600084156106ec578287015190505b6106f68582610678565b86555061075e565b601f19841661070c866104de565b60005b828110156107345784890151825560018201915060208501945060208101905061070f565b86831015610751578489015161074d601f89168261065a565b8355505b6001600288020188555050505b505050505050565b612c96806107756000396000f3fe608060405234801561001057600080fd5b50600436106101205760003560e01c80634e1273f4116100ad578063d539139311610071578063d539139314610329578063d547741f14610347578063d81d0a1514610363578063e985e9c51461037f578063f242432a146103af57610120565b80634e1273f4146102715780637f345710146102a157806391d14854146102bf578063a217fddf146102ef578063a22cb4651461030d57610120565b8063156e29f6116100f4578063156e29f6146101d1578063248a9ca3146101ed5780632eb2c2d61461021d5780632f2ff15d1461023957806336568abe1461025557610120565b8062fdd58e1461012557806301ffc9a71461015557806302fe5305146101855780630e89341c146101a1575b600080fd5b61013f600480360381019061013a9190611bb3565b6103cb565b60405161014c9190611c02565b60405180910390f35b61016f600480360381019061016a9190611c75565b610425565b60405161017c9190611cbd565b60405180910390f35b61019f600480360381019061019a9190611e1e565b610437565b005b6101bb60048036038101906101b69190611e67565b61046e565b6040516101c89190611f13565b60405180910390f35b6101eb60048036038101906101e69190611f35565b610502565b005b61020760048036038101906102029190611fbe565b61054d565b6040516102149190611ffa565b60405180910390f35b6102376004803603810190610232919061217e565b61056d565b005b610253600480360381019061024e919061224d565b610615565b005b61026f600480360381019061026a919061224d565b610637565b005b61028b60048036038101906102869190612350565b6106b2565b6040516102989190612486565b60405180910390f35b6102a96107bb565b6040516102b69190611ffa565b60405180910390f35b6102d960048036038101906102d4919061224d565b6107df565b6040516102e69190611cbd565b60405180910390f35b6102f761084a565b6040516103049190611ffa565b60405180910390f35b610327600480360381019061032291906124d4565b610851565b005b610331610867565b60405161033e9190611ffa565b60405180910390f35b610361600480360381019061035c919061224d565b61088b565b005b61037d60048036038101906103789190612514565b6108ad565b005b6103996004803603810190610394919061259f565b6108f8565b6040516103a69190611cbd565b60405180910390f35b6103c960048036038101906103c491906125df565b61098c565b005b600080600083815260200190815260200160002060008473ffffffffffffffffffffffffffffffffffffffff1673ffffffffffffffffffffffffffffffffffffffff16815260200190815260200160002054905092915050565b600061043082610a34565b9050919050565b7f7804d923f43a17d325d77e781528e0793b2edd9890ab45fc64efd7b4b427744c61046181610aae565b61046a82610ac2565b5050565b60606002805461047d906126a5565b80601f01602080910402602001604051908101604052809291908181526020018280546104a9906126a5565b80156104f65780601f106104cb576101008083540402835291602001916104f6565b820191906000526020600020905b8154815290600101906020018083116104d957829003601f168201915b50505050509050919050565b7f9f2df0fed2c77648de5860a4cc508cd0818c85b8b8a1ab4ceeef8d981c8956a661052c81610aae565b61054784848460405180602001604052806000815250610ad5565b50505050565b600060036000838152602001908152602001600020600101549050919050565b6000610577610b6e565b90508073ffffffffffffffffffffffffffffffffffffffff168673ffffffffffffffffffffffffffffffffffffffff16141580156105bc57506105ba86826108f8565b155b156106005780866040517fe237d9220000000000000000000000000000000000000000000000000000000081526004016105f79291906126e5565b60405180910390fd5b61060d8686868686610b76565b505050505050565b61061e8261054d565b61062781610aae565b6106318383610c6e565b50505050565b61063f610b6e565b73ffffffffffffffffffffffffffffffffffffffff168173ffffffffffffffffffffffffffffffffffffffff16146106a3576040517f6697b23200000000000000000000000000000000000000000000000000000000815260040160405180910390fd5b6106ad8282610d60565b505050565b606081518351146106fe57815183516040517f5b0599910000000000000000000000000000000000000000000000000000000081526004016106f592919061270e565b60405180910390fd5b6000835167ffffffffffffffff81111561071b5761071a611cf3565b5b6040519080825280602002602001820160405280156107495781602001602082028036833780820191505090505b50905060005b84518110156107b05761078661076e8287610e5390919063ffffffff16565b6107818387610e6790919063ffffffff16565b6103cb565b82828151811061079957610798612737565b5b60200260200101818152505080600101905061074f565b508091505092915050565b7f7804d923f43a17d325d77e781528e0793b2edd9890ab45fc64efd7b4b427744c81565b60006003600084815260200190815260200160002060000160008373ffffffffffffffffffffffffffffffffffffffff1673ffffffffffffffffffffffffffffffffffffffff16815260200190815260200160002060009054906101000a900460ff16905092915050565b6000801b81565b61086361085c610b6e565b8383610e7b565b5050565b7f9f2df0fed2c77648de5860a4cc508cd0818c85b8b8a1ab4ceeef8d981c8956a681565b6108948261054d565b61089d81610aae565b6108a78383610d60565b50505050565b7f9f2df0fed2c77648de5860a4cc508cd0818c85b8b8a1ab4ceeef8d981c8956a66108d781610aae565b6108f284848460405180602001604052806000815250610feb565b50505050565b6000600160008473ffffffffffffffffffffffffffffffffffffffff1673ffffffffffffffffffffffffffffffffffffffff16815260200190815260200160002060008373ffffffffffffffffffffffffffffffffffffffff1673ffffffffffffffffffffffffffffffffffffffff16815260200190815260200160002060009054906101000a900460ff16905092915050565b6000610996610b6e565b90508073ffffffffffffffffffffffffffffffffffffffff168673ffffffffffffffffffffffffffffffffffffffff16141580156109db57506109d986826108f8565b155b15610a1f5780866040517fe237d922000000000000000000000000000000000000000000000000000000008152600401610a169291906126e5565b60405180910390fd5b610a2c8686868686611071565b505050505050565b60007f7965db0b000000000000000000000000000000000000000000000000000000007bffffffffffffffffffffffffffffffffffffffffffffffffffffffff1916827bffffffffffffffffffffffffffffffffffffffffffffffffffffffff19161480610aa75750610aa68261117c565b5b9050919050565b610abf81610aba610b6e565b61125e565b50565b8060029081610ad19190612912565b5050565b600073ffffffffffffffffffffffffffffffffffffffff168473ffffffffffffffffffffffffffffffffffffffff1603610b475760006040517f57f447ce000000000000000000000000000000000000000000000000000000008152600401610b3e91906129e4565b60405180910390fd5b600080610b5485856112af565b91509150610b666000878484876112df565b505050505050565b600033905090565b600073ffffffffffffffffffffffffffffffffffffffff168473ffffffffffffffffffffffffffffffffffffffff1603610be85760006040517f57f447ce000000000000000000000000000000000000000000000000000000008152600401610bdf91906129e4565b60405180910390fd5b600073ffffffffffffffffffffffffffffffffffffffff168573ffffffffffffffffffffffffffffffffffffffff1603610c5a5760006040517f01a83514000000000000000000000000000000000000000000000000000000008152600401610c5191906129e4565b60405180910390fd5b610c6785858585856112df565b5050505050565b6000610c7a83836107df565b610d555760016003600085815260200190815260200160002060000160008473ffffffffffffffffffffffffffffffffffffffff1673ffffffffffffffffffffffffffffffffffffffff16815260200190815260200160002060006101000a81548160ff021916908315150217905550610cf2610b6e565b73ffffffffffffffffffffffffffffffffffffffff168273ffffffffffffffffffffffffffffffffffffffff16847f2f8788117e7eff1d82e926ec794901d17c78024a50270940304540a733656f0d60405160405180910390a460019050610d5a565b600090505b92915050565b6000610d6c83836107df565b15610e485760006003600085815260200190815260200160002060000160008473ffffffffffffffffffffffffffffffffffffffff1673ffffffffffffffffffffffffffffffffffffffff16815260200190815260200160002060006101000a81548160ff021916908315150217905550610de5610b6e565b73ffffffffffffffffffffffffffffffffffffffff168273ffffffffffffffffffffffffffffffffffffffff16847ff6391f5c32d9c69d2a47ea670b442974b53935d1edc7fd64eb21e047a839171b60405160405180910390a460019050610e4d565b600090505b92915050565b600060208202602084010151905092915050565b600060208202602084010151905092915050565b600073ffffffffffffffffffffffffffffffffffffffff168273ffffffffffffffffffffffffffffffffffffffff1603610eed5760006040517fced3e100000000000000000000000000000000000000000000000000000000008152600401610ee491906129e4565b60405180910390fd5b80600160008573ffffffffffffffffffffffffffffffffffffffff1673ffffffffffffffffffffffffffffffffffffffff16815260200190815260200160002060008473ffffffffffffffffffffffffffffffffffffffff1673ffffffffffffffffffffffffffffffffffffffff16815260200190815260200160002060006101000a81548160ff0219169083151502179055508173ffffffffffffffffffffffffffffffffffffffff168373ffffffffffffffffffffffffffffffffffffffff167f17307eab39ab6107e8899845ad3d59bd9653f200f220920489ca2b5937696c3183604051610fde9190611cbd565b60405180910390a3505050565b600073ffffffffffffffffffffffffffffffffffffffff168473ffffffffffffffffffffffffffffffffffffffff160361105d5760006040517f57f447ce00000000000000000000000000000000000000000000000000000000815260040161105491906129e4565b60405180910390fd5b61106b6000858585856112df565b50505050565b600073ffffffffffffffffffffffffffffffffffffffff168473ffffffffffffffffffffffffffffffffffffffff16036110e35760006040517f57f447ce0000000000000000000000000000000000000000000000000000000081526004016110da91906129e4565b60405180910390fd5b600073ffffffffffffffffffffffffffffffffffffffff168573ffffffffffffffffffffffffffffffffffffffff16036111555760006040517f01a8351400000000000000000000000000000000000000000000000000000000815260040161114c91906129e4565b60405180910390fd5b60008061116285856112af565b9150915061117387878484876112df565b50505050505050565b60007fd9b67a26000000000000000000000000000000000000000000000000000000007bffffffffffffffffffffffffffffffffffffffffffffffffffffffff1916827bffffffffffffffffffffffffffffffffffffffffffffffffffffffff1916148061124757507f0e89341c000000000000000000000000000000000000000000000000000000007bffffffffffffffffffffffffffffffffffffffffffffffffffffffff1916827bffffffffffffffffffffffffffffffffffffffffffffffffffffffff1916145b80611257575061125682611391565b5b9050919050565b61126882826107df565b6112ab5780826040517fe2517d3f0000000000000000000000000000000000000000000000000000000081526004016112a29291906129ff565b60405180910390fd5b5050565b60608060405191506001825283602083015260408201905060018152826020820152604081016040529250929050565b6112eb858585856113fb565b600073ffffffffffffffffffffffffffffffffffffffff168473ffffffffffffffffffffffffffffffffffffffff161461138a576000611329610b6e565b9050600184510361137957600061134a600086610e6790919063ffffffff16565b90506000611362600086610e6790919063ffffffff16565b90506113728389898585896117a3565b5050611388565b611387818787878787611957565b5b505b5050505050565b60007f01ffc9a7000000000000000000000000000000000000000000000000000000007bffffffffffffffffffffffffffffffffffffffffffffffffffffffff1916827bffffffffffffffffffffffffffffffffffffffffffffffffffffffff1916149050919050565b805182511461144557815181516040517f5b05999100000000000000000000000000000000000000000000000000000000815260040161143c92919061270e565b60405180910390fd5b600061144f610b6e565b905060005b835181101561165e5760006114728286610e6790919063ffffffff16565b905060006114898386610e6790919063ffffffff16565b9050600073ffffffffffffffffffffffffffffffffffffffff168873ffffffffffffffffffffffffffffffffffffffff16146115b657600080600084815260200190815260200160002060008a73ffffffffffffffffffffffffffffffffffffffff1673ffffffffffffffffffffffffffffffffffffffff1681526020019081526020016000205490508181101561155e57888183856040517f03dee4c50000000000000000000000000000000000000000000000000000000081526004016115559493929190612a28565b60405180910390fd5b81810360008085815260200190815260200160002060008b73ffffffffffffffffffffffffffffffffffffffff1673ffffffffffffffffffffffffffffffffffffffff16815260200190815260200160002081905550505b600073ffffffffffffffffffffffffffffffffffffffff168773ffffffffffffffffffffffffffffffffffffffff1614611651578060008084815260200190815260200160002060008973ffffffffffffffffffffffffffffffffffffffff1673ffffffffffffffffffffffffffffffffffffffff16815260200190815260200160002060008282546116499190612a9c565b925050819055505b5050806001019050611454565b50600183510361171d57600061167e600085610e6790919063ffffffff16565b90506000611696600085610e6790919063ffffffff16565b90508573ffffffffffffffffffffffffffffffffffffffff168773ffffffffffffffffffffffffffffffffffffffff168473ffffffffffffffffffffffffffffffffffffffff167fc3d58168c5ae7397731d063d5bbf3d657854427343f4c083240f7aacaa2d0f62858560405161170e92919061270e565b60405180910390a4505061179c565b8373ffffffffffffffffffffffffffffffffffffffff168573ffffffffffffffffffffffffffffffffffffffff168273ffffffffffffffffffffffffffffffffffffffff167f4a39dc06d4c0dbc64b70af90fd698a233a518aa5d07e595d983b8c0526c8f7fb8686604051611793929190612ad0565b60405180910390a45b5050505050565b60008473ffffffffffffffffffffffffffffffffffffffff163b111561194f578373ffffffffffffffffffffffffffffffffffffffff1663f23a6e6187878686866040518663ffffffff1660e01b8152600401611804959493929190612b5c565b6020604051808303816000875af192505050801561184057506040513d601f19601f8201168201806040525081019061183d9190612bcb565b60015b6118c4573d8060008114611870576040519150601f19603f3d011682016040523d82523d6000602084013e611875565b606091505b5060008151036118bc57846040517f57f447ce0000000000000000000000000000000000000000000000000000000081526004016118b391906129e4565b60405180910390fd5b805181602001fd5b63f23a6e6160e01b7bffffffffffffffffffffffffffffffffffffffffffffffffffffffff1916817bffffffffffffffffffffffffffffffffffffffffffffffffffffffff19161461194d57846040517f57f447ce00000000000000000000000000000000000000000000000000000000815260040161194491906129e4565b60405180910390fd5b505b505050505050565b60008473ffffffffffffffffffffffffffffffffffffffff163b1115611b03578373ffffffffffffffffffffffffffffffffffffffff1663bc197c8187878686866040518663ffffffff1660e01b81526004016119b8959493929190612bf8565b6020604051808303816000875af19250505080156119f457506040513d601f19601f820116820180604052508101906119f19190612bcb565b60015b611a78573d8060008114611a24576040519150601f19603f3d011682016040523d82523d6000602084013e611a29565b606091505b506000815103611a7057846040517f57f447ce000000000000000000000000000000000000000000000000000000008152600401611a6791906129e4565b60405180910390fd5b805181602001fd5b63bc197c8160e01b7bffffffffffffffffffffffffffffffffffffffffffffffffffffffff1916817bffffffffffffffffffffffffffffffffffffffffffffffffffffffff191614611b0157846040517f57f447ce000000000000000000000000000000000000000000000000000000008152600401611af891906129e4565b60405180910390fd5b505b505050505050565b6000604051905090565b600080fd5b600080fd5b600073ffffffffffffffffffffffffffffffffffffffff82169050919050565b6000611b4a82611b1f565b9050919050565b611b5a81611b3f565b8114611b6557600080fd5b50565b600081359050611b7781611b51565b92915050565b6000819050919050565b611b9081611b7d565b8114611b9b57600080fd5b50565b600081359050611bad81611b87565b92915050565b60008060408385031215611bca57611bc9611b15565b5b6000611bd885828601611b68565b9250506020611be985828601611b9e565b9150509250929050565b611bfc81611b7d565b82525050565b6000602082019050611c176000830184611bf3565b92915050565b60007fffffffff0000000000000000000000000000000000000000000000000000000082169050919050565b611c5281611c1d565b8114611c5d57600080fd5b50565b600081359050611c6f81611c49565b92915050565b600060208284031215611c8b57611c8a611b15565b5b6000611c9984828501611c60565b91505092915050565b60008115159050919050565b611cb781611ca2565b82525050565b6000602082019050611cd26000830184611cae565b92915050565b600080fd5b600080fd5b6000601f19601f8301169050919050565b7f4e487b7100000000000000000000000000000000000000000000000000000000600052604160045260246000fd5b611d2b82611ce2565b810181811067ffffffffffffffff82111715611d4a57611d49611cf3565b5b80604052505050565b6000611d5d611b0b565b9050611d698282611d22565b919050565b600067ffffffffffffffff821115611d8957611d88611cf3565b5b611d9282611ce2565b9050602081019050919050565b82818337600083830152505050565b6000611dc1611dbc84611d6e565b611d53565b905082815260208101848484011115611ddd57611ddc611cdd565b5b611de8848285611d9f565b509392505050565b600082601f830112611e0557611e04611cd8565b5b8135611e15848260208601611dae565b91505092915050565b600060208284031215611e3457611e33611b15565b5b600082013567ffffffffffffffff811115611e5257611e51611b1a565b5b611e5e84828501611df0565b91505092915050565b600060208284031215611e7d57611e7c611b15565b5b6000611e8b84828501611b9e565b91505092915050565b600081519050919050565b600082825260208201905092915050565b60005b83811015611ece578082015181840152602081019050611eb3565b60008484015250505050565b6000611ee582611e94565b611eef8185611e9f565b9350611eff818560208601611eb0565b611f0881611ce2565b840191505092915050565b60006020820190508181036000830152611f2d8184611eda565b905092915050565b600080600060608486031215611f4e57611f4d611b15565b5b6000611f5c86828701611b68565b9350506020611f6d86828701611b9e565b9250506040611f7e86828701611b9e565b9150509250925092565b6000819050919050565b611f9b81611f88565b8114611fa657600080fd5b50565b600081359050611fb881611f92565b92915050565b600060208284031215611fd457611fd3611b15565b5b6000611fe284828501611fa9565b91505092915050565b611ff481611f88565b82525050565b600060208201905061200f6000830184611feb565b92915050565b600067ffffffffffffffff8211156120305761202f611cf3565b5b602082029050602081019050919050565b600080fd5b600061205961205484612015565b611d53565b9050808382526020820190506020840283018581111561207c5761207b612041565b5b835b818110156120a557806120918882611b9e565b84526020840193505060208101905061207e565b5050509392505050565b600082601f8301126120c4576120c3611cd8565b5b81356120d4848260208601612046565b91505092915050565b600067ffffffffffffffff8211156120f8576120f7611cf3565b5b61210182611ce2565b9050602081019050919050565b600061212161211c846120dd565b611d53565b90508281526020810184848401111561213d5761213c611cdd565b5b612148848285611d9f565b509392505050565b600082601f83011261216557612164611cd8565b5b813561217584826020860161210e565b91505092915050565b600080600080600060a0868803121561219a57612199611b15565b5b60006121a888828901611b68565b95505060206121b988828901611b68565b945050604086013567ffffffffffffffff8111156121da576121d9611b1a565b5b6121e6888289016120af565b935050606086013567ffffffffffffffff81111561220757612206611b1a565b5b612213888289016120af565b925050608086013567ffffffffffffffff81111561223457612233611b1a565b5b61224088828901612150565b9150509295509295909350565b6000806040838503121561226457612263611b15565b5b600061227285828601611fa9565b925050602061228385828601611b68565b9150509250929050565b600067ffffffffffffffff8211156122a8576122a7611cf3565b5b602082029050602081019050919050565b60006122cc6122c78461228d565b611d53565b905080838252602082019050602084028301858111156122ef576122ee612041565b5b835b8181101561231857806123048882611b68565b8452602084019350506020810190506122f1565b5050509392505050565b600082601f83011261233757612336611cd8565b5b81356123478482602086016122b9565b91505092915050565b6000806040838503121561236757612366611b15565b5b600083013567ffffffffffffffff81111561238557612384611b1a565b5b61239185828601612322565b925050602083013567ffffffffffffffff8111156123b2576123b1611b1a565b5b6123be858286016120af565b9150509250929050565b600081519050919050565b600082825260208201905092915050565b6000819050602082019050919050565b6123fd81611b7d565b82525050565b600061240f83836123f4565b60208301905092915050565b6000602082019050919050565b6000612433826123c8565b61243d81856123d3565b9350612448836123e4565b8060005b838110156124795781516124608882612403565b975061246b8361241b565b92505060018101905061244c565b5085935050505092915050565b600060208201905081810360008301526124a08184612428565b905092915050565b6124b181611ca2565b81146124bc57600080fd5b50565b6000813590506124ce816124a8565b92915050565b600080604083850312156124eb576124ea611b15565b5b60006124f985828601611b68565b925050602061250a858286016124bf565b9150509250929050565b60008060006060848603121561252d5761252c611b15565b5b600061253b86828701611b68565b935050602084013567ffffffffffffffff81111561255c5761255b611b1a565b5b612568868287016120af565b925050604084013567ffffffffffffffff81111561258957612588611b1a565b5b612595868287016120af565b9150509250925092565b600080604083850312156125b6576125b5611b15565b5b60006125c485828601611b68565b92505060206125d585828601611b68565b9150509250929050565b600080600080600060a086880312156125fb576125fa611b15565b5b600061260988828901611b68565b955050602061261a88828901611b68565b945050604061262b88828901611b9e565b935050606061263c88828901611b9e565b925050608086013567ffffffffffffffff81111561265d5761265c611b1a565b5b61266988828901612150565b9150509295509295909350565b7f4e487b7100000000000000000000000000000000000000000000000000000000600052602260045260246000fd5b600060028204905060018216806126bd57607f821691505b6020821081036126d0576126cf612676565b5b50919050565b6126df81611b3f565b82525050565b60006040820190506126fa60008301856126d6565b61270760208301846126d6565b9392505050565b60006040820190506127236000830185611bf3565b6127306020830184611bf3565b9392505050565b7f4e487b7100000000000000000000000000000000000000000000000000000000600052603260045260246000fd5b60008190508160005260206000209050919050565b60006020601f8301049050919050565b600082821b905092915050565b6000600883026127c87fffffffffffffffffffffffffffffffffffffffffffffffffffffffffffffffff8261278b565b6127d2868361278b565b95508019841693508086168417925050509392505050565b6000819050919050565b600061280f61280a61280584611b7d565b6127ea565b611b7d565b9050919050565b6000819050919050565b612829836127f4565b61283d61283582612816565b848454612798565b825550505050565b600090565b612852612845565b61285d818484612820565b505050565b5b818110156128815761287660008261284a565b600181019050612863565b5050565b601f8211156128c65761289781612766565b6128a08461277b565b810160208510156128af578190505b6128c36128bb8561277b565b830182612862565b50505b505050565b600082821c905092915050565b60006128e9600019846008026128cb565b1980831691505092915050565b600061290283836128d8565b9150826002028217905092915050565b61291b82611e94565b67ffffffffffffffff81111561293457612933611cf3565b5b61293e82546126a5565b612949828285612885565b600060209050601f83116001811461297c576000841561296a578287015190505b61297485826128f6565b8655506129dc565b601f19841661298a86612766565b60005b828110156129b25784890151825560018201915060208501945060208101905061298d565b868310156129cf57848901516129cb601f8916826128d8565b8355505b6001600288020188555050505b505050505050565b60006020820190506129f960008301846126d6565b92915050565b6000604082019050612a1460008301856126d6565b612a216020830184611feb565b9392505050565b6000608082019050612a3d60008301876126d6565b612a4a6020830186611bf3565b612a576040830185611bf3565b612a646060830184611bf3565b95945050505050565b7f4e487b7100000000000000000000000000000000000000000000000000000000600052601160045260246000fd5b6000612aa782611b7d565b9150612ab283611b7d565b9250828201905080821115612aca57612ac9612a6d565b5b92915050565b60006040820190508181036000830152612aea8185612428565b90508181036020830152612afe8184612428565b90509392505050565b600081519050919050565b600082825260208201905092915050565b6000612b2e82612b07565b612b388185612b12565b9350612b48818560208601611eb0565b612b5181611ce2565b840191505092915050565b600060a082019050612b7160008301886126d6565b612b7e60208301876126d6565b612b8b6040830186611bf3565b612b986060830185611bf3565b8181036080830152612baa8184612b23565b90509695505050505050565b600081519050612bc581611c49565b92915050565b600060208284031215612be157612be0611b15565b5b6000612bef84828501612bb6565b91505092915050565b600060a082019050612c0d60008301886126d6565b612c1a60208301876126d6565b8181036040830152612c2c8186612428565b90508181036060830152612c408185612428565b90508181036080830152612c548184612b23565b9050969550505050505056fea26469706673582212201362a6e479533eaeee70d142bd25e1b8391b67af080c34fdc906ce42d2bc2ae364736f6c634300081c0033",
  "linkReferences": {},
  "deployedLinkReferences": {}
}