{
  "_format": "hh-sol-artifact-1",
  "contractName": "YUZUERC1155",
  "sourceName": "contracts/YUZUERC1155.sol",
  "abi": [
    {
      "inputs": [
        {
          "internalType": "address",
          "name": "initialOwner",
          "type": "address"
        }
      ],
      "stateMutability": "nonpayable",
      "type": "constructor"
    },
    {
      "inputs": [
        {
          "internalType": "address",
          "name": "sender",
          "type": "address"
        },
        {
          "internalType": "uint256",
          "name": "balance",
          "type": "uint256"
        },
        {
          "internalType": "uint256",
          "name": "needed",
          "type": "uint256"
        },
        {
          "internalType": "uint256",
          "name": "tokenId",
          "type": "uint256"
        }
      ],
      "name": "ERC1155InsufficientBalance",
      "type": "error"
    },
    {
      "inputs": [
        {
          "internalType": "address",
          "name": "approver",
          "type": "address"
        }
      ],
      "name": "ERC1155InvalidApprover",
      "type": "error"
    },
    {
      "inputs": [
        {
          "internalType": "uint256",
          "name": "idsLength",
          "type": "uint256"
        },
        {
          "internalType": "uint256",
          "name": "valuesLength",
          "type": "uint256"
        }
      ],
      "name": "ERC1155InvalidArrayLength",
      "type": "error"
    },
    {
      "inputs": [
        {
          "internalType": "address",
          "name": "operator",
          "type": "address"
        }
      ],
      "name": "ERC1155InvalidOperator",
      "type": "error"
    },
    {
      "inputs": [
        {
          "internalType": "address",
          "name": "receiver",
          "type": "address"
        }
      ],
      "name": "ERC1155InvalidReceiver",
      "type": "error"
    },
    {
      "inputs": [
        {
          "internalType": "address",
          "name": "sender",
          "type": "address"
        }
      ],
      "name": "ERC1155InvalidSender",
      "type": "error"
    },
    {
      "inputs": [
        {
          "internalType": "address",
          "name": "operator",
          "type": "address"
        },
        {
          "internalType": "address",
          "name": "owner",
          "type": "address"
        }
      ],
      "name": "ERC1155MissingApprovalForAll",
      "type": "error"
    },
    {
      "inputs": [
        {
          "internalType": "address",
          "name": "owner",
          "type": "address"
        }
      ],
      "name": "OwnableInvalidOwner",
      "type": "error"
    },
    {
      "inputs": [
        {
          "internalType": "address",
          "name": "account",
          "type": "address"
        }
      ],
      "name": "OwnableUnauthorizedAccount",
      "type": "error"
    },
    {
      "anonymous": false,
      "inputs": [
        {
          "indexed": true,
          "internalType": "address",
          "name": "account",
          "type": "address"
        },
        {
          "indexed": true,
          "internalType": "address",
          "name": "operator",
          "type": "address"
        },
        {
          "indexed": false,
          "internalType": "bool",
          "name": "approved",
          "type": "bool"
        }
      ],
      "name": "ApprovalForAll",
      "type": "event"
    },
    {
      "anonymous": false,
      "inputs": [
        {
          "indexed": true,
          "internalType": "address",
          "name": "previousOwner",
          "type": "address"
        },
        {
          "indexed": true,
          "internalType": "address",
          "name": "newOwner",
          "type": "address"
        }
      ],
      "name": "OwnershipTransferred",
      "type": "event"
    },
    {
      "anonymous": false,
      "inputs": [
        {
          "indexed": true,
          "internalType": "address",
          "name": "operator",
          "type": "address"
        },
        {
          "indexed": true,
          "internalType": "address",
          "name": "from",
          "type": "address"
        },
        {
          "indexed": true,
          "internalType": "address",
          "name": "to",
          "type": "address"
        },
        {
          "indexed": false,
          "internalType": "uint256[]",
          "name": "ids",
          "type": "uint256[]"
        },
        {
          "indexed": false,
          "internalType": "uint256[]",
          "name": "values",
          "type": "uint256[]"
        }
      ],
      "name": "TransferBatch",
      "type": "event"
    },
    {
      "anonymous": false,
      "inputs": [
        {
          "indexed": true,
          "internalType": "address",
          "name": "operator",
          "type": "address"
        },
        {
          "indexed": true,
          "internalType": "address",
          "name": "from",
          "type": "address"
        },
        {
          "indexed": true,
          "internalType": "address",
          "name": "to",
          "type": "address"
        },
        {
          "indexed": false,
          "internalType": "uint256",
          "name": "id",
          "type": "uint256"
        },
        {
          "indexed": false,
          "internalType": "uint256",
          "name": "value",
          "type": "uint256"
        }
      ],
      "name": "TransferSingle",
      "type": "event"
    },
    {
      "anonymous": false,
      "inputs": [
        {
          "indexed": false,
          "internalType": "string",
          "name": "value",
          "type": "string"
        },
        {
          "indexed": true,
          "internalType": "uint256",
          "name": "id",
          "type": "uint256"
        }
      ],
      "name": "URI",
      "type": "event"
    },
    {
      "inputs": [],
      "name": "MAX_NFT_ID",
      "outputs": [
        {
          "internalType": "uint256",
          "name": "",
          "type": "uint256"
        }
      ],
      "stateMutability": "view",
      "type": "function"
    },
    {
      "inputs": [],
      "name": "MIN_NFT_ID",
      "outputs": [
        {
          "internalType": "uint256",
          "name": "",
          "type": "uint256"
        }
      ],
      "stateMutability": "view",
      "type": "function"
    },
    {
      "inputs": [
        {
          "internalType": "address",
          "name": "account",
          "type": "address"
        },
        {
          "internalType": "uint256",
          "name": "id",
          "type": "uint256"
        }
      ],
      "name": "balanceOf",
      "outputs": [
        {
          "internalType": "uint256",
          "name": "",
          "type": "uint256"
        }
      ],
      "stateMutability": "view",
      "type": "function"
    },
    {
      "inputs": [
        {
          "internalType": "address[]",
          "name": "accounts",
          "type": "address[]"
        },
        {
          "internalType": "uint256[]",
          "name": "ids",
          "type": "uint256[]"
        }
      ],
      "name": "balanceOfBatch",
      "outputs": [
        {
          "internalType": "uint256[]",
          "name": "",
          "type": "uint256[]"
        }
      ],
      "stateMutability": "view",
      "type": "function"
    },
    {
      "inputs": [],
      "name": "drawGacha",
      "outputs": [],
      "stateMutability": "nonpayable",
      "type": "function"
    },
    {
      "inputs": [
        {
          "internalType": "address",
          "name": "account",
          "type": "address"
        },
        {
          "internalType": "address",
          "name": "operator",
          "type": "address"
        }
      ],
      "name": "isApprovedForAll",
      "outputs": [
        {
          "internalType": "bool",
          "name": "",
          "type": "bool"
        }
      ],
      "stateMutability": "view",
      "type": "function"
    },
    {
      "inputs": [
        {
          "internalType": "address",
          "name": "account",
          "type": "address"
        },
        {
          "internalType": "uint256",
          "name": "id",
          "type": "uint256"
        },
        {
          "internalType": "uint256",
          "name": "amount",
          "type": "uint256"
        },
        {
          "internalType": "bytes",
          "name": "data",
          "type": "bytes"
        }
      ],
      "name": "mint",
      "outputs": [],
      "stateMutability": "nonpayable",
      "type": "function"
    },
    {
      "inputs": [
        {
          "internalType": "address",
          "name": "to",
          "type": "address"
        },
        {
          "internalType": "uint256[]",
          "name": "ids",
          "type": "uint256[]"
        },
        {
          "internalType": "uint256[]",
          "name": "amounts",
          "type": "uint256[]"
        },
        {
          "internalType": "bytes",
          "name": "data",
          "type": "bytes"
        }
      ],
      "name": "mintBatch",
      "outputs": [],
      "stateMutability": "nonpayable",
      "type": "function"
    },
    {
      "inputs": [],
      "name": "owner",
      "outputs": [
        {
          "internalType": "address",
          "name": "",
          "type": "address"
        }
      ],
      "stateMutability": "view",
      "type": "function"
    },
    {
      "inputs": [],
      "name": "renounceOwnership",
      "outputs": [],
      "stateMutability": "nonpayable",
      "type": "function"
    },
    {
      "inputs": [
        {
          "internalType": "address",
          "name": "from",
          "type": "address"
        },
        {
          "internalType": "address",
          "name": "to",
          "type": "address"
        },
        {
          "internalType": "uint256[]",
          "name": "ids",
          "type": "uint256[]"
        },
        {
          "internalType": "uint256[]",
          "name": "values",
          "type": "uint256[]"
        },
        {
          "internalType": "bytes",
          "name": "data",
          "type": "bytes"
        }
      ],
      "name": "safeBatchTransferFrom",
      "outputs": [],
      "stateMutability": "nonpayable",
      "type": "function"
    },
    {
      "inputs": [
        {
          "internalType": "address",
          "name": "from",
          "type": "address"
        },
        {
          "internalType": "address",
          "name": "to",
          "type": "address"
        },
        {
          "internalType": "uint256",
          "name": "id",
          "type": "uint256"
        },
        {
          "internalType": "uint256",
          "name": "value",
          "type": "uint256"
        },
        {
          "internalType": "bytes",
          "name": "data",
          "type": "bytes"
        }
      ],
      "name": "safeTransferFrom",
      "outputs": [],
      "stateMutability": "nonpayable",
      "type": "function"
    },
    {
      "inputs": [
        {
          "internalType": "address",
          "name": "operator",
          "type": "address"
        },
        {
          "internalType": "bool",
          "name": "approved",
          "type": "bool"
        }
      ],
      "name": "setApprovalForAll",
      "outputs": [],
      "stateMutability": "nonpayable",
      "type": "function"
    },
    {
      "inputs": [
        {
          "internalType": "string",
          "name": "newuri",
          "type": "string"
        }
      ],
      "name": "setURI",
      "outputs": [],
      "stateMutability": "nonpayable",
      "type": "function"
    },
    {
      "inputs": [
        {
          "internalType": "bytes4",
          "name": "interfaceId",
          "type": "bytes4"
        }
      ],
      "name": "supportsInterface",
      "outputs": [
        {
          "internalType": "bool",
          "name": "",
          "type": "bool"
        }
      ],
      "stateMutability": "view",
      "type": "function"
    },
    {
      "inputs": [
        {
          "internalType": "address",
          "name": "newOwner",
          "type": "address"
        }
      ],
      "name": "transferOwnership",
      "outputs": [],
      "stateMutability": "nonpayable",
      "type": "function"
    },
    {
      "inputs": [
        {
          "internalType": "uint256",
          "name": "",
          "type": "uint256"
        }
      ],
      "name": "uri",
      "outputs": [
        {
          "internalType": "string",
          "name": "",
          "type": "string"
        }
      ],
      "stateMutability": "view",
      "type": "function"
    }
  ],
  "bytecode": "0x60806040523480156200001157600080fd5b50604051620030c9380380620030c9833981810160405281019062000037919062000237565b8060405180608001604052806043815260200162003086604391396200006381620000f260201b60201c565b50600073ffffffffffffffffffffffffffffffffffffffff168173ffffffffffffffffffffffffffffffffffffffff1603620000d95760006040517f1e4fbdf7000000000000000000000000000000000000000000000000000000008152600401620000d091906200027a565b60405180910390fd5b620000ea816200010760201b60201c565b5050620005f8565b806002908162000103919062000511565b5050565b6000600360009054906101000a900473ffffffffffffffffffffffffffffffffffffffff16905081600360006101000a81548173ffffffffffffffffffffffffffffffffffffffff021916908373ffffffffffffffffffffffffffffffffffffffff1602179055508173ffffffffffffffffffffffffffffffffffffffff168173ffffffffffffffffffffffffffffffffffffffff167f8be0079c531659141344cd1fd0a4f28419497f9722a3daafe3b4186f6b6457e060405160405180910390a35050565b600080fd5b600073ffffffffffffffffffffffffffffffffffffffff82169050919050565b6000620001ff82620001d2565b9050919050565b6200021181620001f2565b81146200021d57600080fd5b50565b600081519050620002318162000206565b92915050565b60006020828403121562000250576200024f620001cd565b5b6000620002608482850162000220565b91505092915050565b6200027481620001f2565b82525050565b600060208201905062000291600083018462000269565b92915050565b600081519050919050565b7f4e487b7100000000000000000000000000000000000000000000000000000000600052604160045260246000fd5b7f4e487b7100000000000000000000000000000000000000000000000000000000600052602260045260246000fd5b600060028204905060018216806200031957607f821691505b6020821081036200032f576200032e620002d1565b5b50919050565b60008190508160005260206000209050919050565b60006020601f8301049050919050565b600082821b905092915050565b600060088302620003997fffffffffffffffffffffffffffffffffffffffffffffffffffffffffffffffff826200035a565b620003a586836200035a565b95508019841693508086168417925050509392505050565b6000819050919050565b6000819050919050565b6000620003f2620003ec620003e684620003bd565b620003c7565b620003bd565b9050919050565b6000819050919050565b6200040e83620003d1565b620004266200041d82620003f9565b84845462000367565b825550505050565b600090565b6200043d6200042e565b6200044a81848462000403565b505050565b5b8181101562000472576200046660008262000433565b60018101905062000450565b5050565b601f821115620004c1576200048b8162000335565b62000496846200034a565b81016020851015620004a6578190505b620004be620004b5856200034a565b8301826200044f565b50505b505050565b600082821c905092915050565b6000620004e660001984600802620004c6565b1980831691505092915050565b6000620005018383620004d3565b9150826002028217905092915050565b6200051c8262000297565b67ffffffffffffffff811115620005385762000537620002a2565b5b62000544825462000300565b6200055182828562000476565b600060209050601f83116001811462000589576000841562000574578287015190505b620005808582620004f3565b865550620005f0565b601f198416620005998662000335565b60005b82811015620005c3578489015182556001820191506020850194506020810190506200059c565b86831015620005e35784890151620005df601f891682620004d3565b8355505b6001600288020188555050505b505050505050565b612a7e80620006086000396000f3fe608060405234801561001057600080fd5b506004361061010a5760003560e01c8063715018a6116100a2578063969cf36511610071578063969cf3651461028f578063a22cb465146102ad578063e985e9c5146102c9578063f242432a146102f9578063f2fde38b146103155761010a565b8063715018a61461022d578063731133e91461023757806373a57aed146102535780638da5cb5b146102715761010a565b80631f7fdffa116100de5780631f7fdffa146101bb5780632eb2c2d6146101d75780634bb94a2a146101f35780634e1273f4146101fd5761010a565b8062fdd58e1461010f57806301ffc9a71461013f57806302fe53051461016f5780630e89341c1461018b575b600080fd5b610129600480360381019061012491906118b9565b610331565b6040516101369190611908565b60405180910390f35b6101596004803603810190610154919061197b565b61038b565b60405161016691906119c3565b60405180910390f35b61018960048036038101906101849190611b24565b61046d565b005b6101a560048036038101906101a09190611b6d565b610481565b6040516101b29190611c19565b60405180910390f35b6101d560048036038101906101d09190611da4565b610515565b005b6101f160048036038101906101ec9190611e5f565b610527565b005b6101fb6105cf565b005b61021760048036038101906102129190611ff1565b6105fa565b6040516102249190612127565b60405180910390f35b610235610703565b005b610251600480360381019061024c9190612149565b610717565b005b61025b610729565b6040516102689190611908565b60405180910390f35b61027961072e565b60405161028691906121db565b60405180910390f35b610297610758565b6040516102a49190611908565b60405180910390f35b6102c760048036038101906102c29190612222565b61075d565b005b6102e360048036038101906102de9190612262565b610773565b6040516102f091906119c3565b60405180910390f35b610313600480360381019061030e91906122a2565b610807565b005b61032f600480360381019061032a9190612339565b6108af565b005b600080600083815260200190815260200160002060008473ffffffffffffffffffffffffffffffffffffffff1673ffffffffffffffffffffffffffffffffffffffff16815260200190815260200160002054905092915050565b60007fd9b67a26000000000000000000000000000000000000000000000000000000007bffffffffffffffffffffffffffffffffffffffffffffffffffffffff1916827bffffffffffffffffffffffffffffffffffffffffffffffffffffffff1916148061045657507f0e89341c000000000000000000000000000000000000000000000000000000007bffffffffffffffffffffffffffffffffffffffffffffffffffffffff1916827bffffffffffffffffffffffffffffffffffffffffffffffffffffffff1916145b80610466575061046582610935565b5b9050919050565b61047561099f565b61047e81610a26565b50565b60606002805461049090612395565b80601f01602080910402602001604051908101604052809291908181526020018280546104bc90612395565b80156105095780601f106104de57610100808354040283529160200191610509565b820191906000526020600020905b8154815290600101906020018083116104ec57829003601f168201915b50505050509050919050565b61052184848484610a39565b50505050565b6000610531610abf565b90508073ffffffffffffffffffffffffffffffffffffffff168673ffffffffffffffffffffffffffffffffffffffff161415801561057657506105748682610773565b155b156105ba5780866040517fe237d9220000000000000000000000000000000000000000000000000000000081526004016105b19291906123c6565b60405180910390fd5b6105c78686868686610ac7565b505050505050565b60006105d9610bbf565b90506105f73382600160405180602001604052806000815250610c1d565b50565b6060815183511461064657815183516040517f5b05999100000000000000000000000000000000000000000000000000000000815260040161063d9291906123ef565b60405180910390fd5b6000835167ffffffffffffffff811115610663576106626119f9565b5b6040519080825280602002602001820160405280156106915781602001602082028036833780820191505090505b50905060005b84518110156106f8576106ce6106b68287610cb690919063ffffffff16565b6106c98387610cca90919063ffffffff16565b610331565b8282815181106106e1576106e0612418565b5b602002602001018181525050806001019050610697565b508091505092915050565b61070b61099f565b6107156000610cde565b565b61072384848484610c1d565b50505050565b600181565b6000600360009054906101000a900473ffffffffffffffffffffffffffffffffffffffff16905090565b601081565b61076f610768610abf565b8383610da4565b5050565b6000600160008473ffffffffffffffffffffffffffffffffffffffff1673ffffffffffffffffffffffffffffffffffffffff16815260200190815260200160002060008373ffffffffffffffffffffffffffffffffffffffff1673ffffffffffffffffffffffffffffffffffffffff16815260200190815260200160002060009054906101000a900460ff16905092915050565b6000610811610abf565b90508073ffffffffffffffffffffffffffffffffffffffff168673ffffffffffffffffffffffffffffffffffffffff161415801561085657506108548682610773565b155b1561089a5780866040517fe237d9220000000000000000000000000000000000000000000000000000000081526004016108919291906123c6565b60405180910390fd5b6108a78686868686610f14565b505050505050565b6108b761099f565b600073ffffffffffffffffffffffffffffffffffffffff168173ffffffffffffffffffffffffffffffffffffffff16036109295760006040517f1e4fbdf700000000000000000000000000000000000000000000000000000000815260040161092091906121db565b60405180910390fd5b61093281610cde565b50565b60007f01ffc9a7000000000000000000000000000000000000000000000000000000007bffffffffffffffffffffffffffffffffffffffffffffffffffffffff1916827bffffffffffffffffffffffffffffffffffffffffffffffffffffffff1916149050919050565b6109a7610abf565b73ffffffffffffffffffffffffffffffffffffffff166109c561072e565b73ffffffffffffffffffffffffffffffffffffffff1614610a24576109e8610abf565b6040517f118cdaa7000000000000000000000000000000000000000000000000000000008152600401610a1b91906121db565b60405180910390fd5b565b8060029081610a3591906125f3565b5050565b600073ffffffffffffffffffffffffffffffffffffffff168473ffffffffffffffffffffffffffffffffffffffff1603610aab5760006040517f57f447ce000000000000000000000000000000000000000000000000000000008152600401610aa291906121db565b60405180910390fd5b610ab960008585858561101f565b50505050565b600033905090565b600073ffffffffffffffffffffffffffffffffffffffff168473ffffffffffffffffffffffffffffffffffffffff1603610b395760006040517f57f447ce000000000000000000000000000000000000000000000000000000008152600401610b3091906121db565b60405180910390fd5b600073ffffffffffffffffffffffffffffffffffffffff168573ffffffffffffffffffffffffffffffffffffffff1603610bab5760006040517f01a83514000000000000000000000000000000000000000000000000000000008152600401610ba291906121db565b60405180910390fd5b610bb8858585858561101f565b5050505050565b600080600143610bcf91906126f4565b4060001c90506000601042443385604051602001610bf09493929190612791565b6040516020818303038152906040528051906020012060001c610c13919061280e565b9050809250505090565b600073ffffffffffffffffffffffffffffffffffffffff168473ffffffffffffffffffffffffffffffffffffffff1603610c8f5760006040517f57f447ce000000000000000000000000000000000000000000000000000000008152600401610c8691906121db565b60405180910390fd5b600080610c9c85856110d1565b91509150610cae60008784848761101f565b505050505050565b600060208202602084010151905092915050565b600060208202602084010151905092915050565b6000600360009054906101000a900473ffffffffffffffffffffffffffffffffffffffff16905081600360006101000a81548173ffffffffffffffffffffffffffffffffffffffff021916908373ffffffffffffffffffffffffffffffffffffffff1602179055508173ffffffffffffffffffffffffffffffffffffffff168173ffffffffffffffffffffffffffffffffffffffff167f8be0079c531659141344cd1fd0a4f28419497f9722a3daafe3b4186f6b6457e060405160405180910390a35050565b600073ffffffffffffffffffffffffffffffffffffffff168273ffffffffffffffffffffffffffffffffffffffff1603610e165760006040517fced3e100000000000000000000000000000000000000000000000000000000008152600401610e0d91906121db565b60405180910390fd5b80600160008573ffffffffffffffffffffffffffffffffffffffff1673ffffffffffffffffffffffffffffffffffffffff16815260200190815260200160002060008473ffffffffffffffffffffffffffffffffffffffff1673ffffffffffffffffffffffffffffffffffffffff16815260200190815260200160002060006101000a81548160ff0219169083151502179055508173ffffffffffffffffffffffffffffffffffffffff168373ffffffffffffffffffffffffffffffffffffffff167f17307eab39ab6107e8899845ad3d59bd9653f200f220920489ca2b5937696c3183604051610f0791906119c3565b60405180910390a3505050565b600073ffffffffffffffffffffffffffffffffffffffff168473ffffffffffffffffffffffffffffffffffffffff1603610f865760006040517f57f447ce000000000000000000000000000000000000000000000000000000008152600401610f7d91906121db565b60405180910390fd5b600073ffffffffffffffffffffffffffffffffffffffff168573ffffffffffffffffffffffffffffffffffffffff1603610ff85760006040517f01a83514000000000000000000000000000000000000000000000000000000008152600401610fef91906121db565b60405180910390fd5b60008061100585856110d1565b91509150611016878784848761101f565b50505050505050565b61102b85858585611101565b600073ffffffffffffffffffffffffffffffffffffffff168473ffffffffffffffffffffffffffffffffffffffff16146110ca576000611069610abf565b905060018451036110b957600061108a600086610cca90919063ffffffff16565b905060006110a2600086610cca90919063ffffffff16565b90506110b28389898585896114a9565b50506110c8565b6110c781878787878761165d565b5b505b5050505050565b60608060405191506001825283602083015260408201905060018152826020820152604081016040529250929050565b805182511461114b57815181516040517f5b0599910000000000000000000000000000000000000000000000000000000081526004016111429291906123ef565b60405180910390fd5b6000611155610abf565b905060005b83518110156113645760006111788286610cca90919063ffffffff16565b9050600061118f8386610cca90919063ffffffff16565b9050600073ffffffffffffffffffffffffffffffffffffffff168873ffffffffffffffffffffffffffffffffffffffff16146112bc57600080600084815260200190815260200160002060008a73ffffffffffffffffffffffffffffffffffffffff1673ffffffffffffffffffffffffffffffffffffffff1681526020019081526020016000205490508181101561126457888183856040517f03dee4c500000000000000000000000000000000000000000000000000000000815260040161125b949392919061283f565b60405180910390fd5b81810360008085815260200190815260200160002060008b73ffffffffffffffffffffffffffffffffffffffff1673ffffffffffffffffffffffffffffffffffffffff16815260200190815260200160002081905550505b600073ffffffffffffffffffffffffffffffffffffffff168773ffffffffffffffffffffffffffffffffffffffff1614611357578060008084815260200190815260200160002060008973ffffffffffffffffffffffffffffffffffffffff1673ffffffffffffffffffffffffffffffffffffffff168152602001908152602001600020600082825461134f9190612884565b925050819055505b505080600101905061115a565b506001835103611423576000611384600085610cca90919063ffffffff16565b9050600061139c600085610cca90919063ffffffff16565b90508573ffffffffffffffffffffffffffffffffffffffff168773ffffffffffffffffffffffffffffffffffffffff168473ffffffffffffffffffffffffffffffffffffffff167fc3d58168c5ae7397731d063d5bbf3d657854427343f4c083240f7aacaa2d0f6285856040516114149291906123ef565b60405180910390a450506114a2565b8373ffffffffffffffffffffffffffffffffffffffff168573ffffffffffffffffffffffffffffffffffffffff168273ffffffffffffffffffffffffffffffffffffffff167f4a39dc06d4c0dbc64b70af90fd698a233a518aa5d07e595d983b8c0526c8f7fb86866040516114999291906128b8565b60405180910390a45b5050505050565b60008473ffffffffffffffffffffffffffffffffffffffff163b1115611655578373ffffffffffffffffffffffffffffffffffffffff1663f23a6e6187878686866040518663ffffffff1660e01b815260040161150a959493929190612944565b6020604051808303816000875af192505050801561154657506040513d601f19601f8201168201806040525081019061154391906129b3565b60015b6115ca573d8060008114611576576040519150601f19603f3d011682016040523d82523d6000602084013e61157b565b606091505b5060008151036115c257846040517f57f447ce0000000000000000000000000000000000000000000000000000000081526004016115b991906121db565b60405180910390fd5b805181602001fd5b63f23a6e6160e01b7bffffffffffffffffffffffffffffffffffffffffffffffffffffffff1916817bffffffffffffffffffffffffffffffffffffffffffffffffffffffff19161461165357846040517f57f447ce00000000000000000000000000000000000000000000000000000000815260040161164a91906121db565b60405180910390fd5b505b505050505050565b60008473ffffffffffffffffffffffffffffffffffffffff163b1115611809578373ffffffffffffffffffffffffffffffffffffffff1663bc197c8187878686866040518663ffffffff1660e01b81526004016116be9594939291906129e0565b6020604051808303816000875af19250505080156116fa57506040513d601f19601f820116820180604052508101906116f791906129b3565b60015b61177e573d806000811461172a576040519150601f19603f3d011682016040523d82523d6000602084013e61172f565b606091505b50600081510361177657846040517f57f447ce00000000000000000000000000000000000000000000000000000000815260040161176d91906121db565b60405180910390fd5b805181602001fd5b63bc197c8160e01b7bffffffffffffffffffffffffffffffffffffffffffffffffffffffff1916817bffffffffffffffffffffffffffffffffffffffffffffffffffffffff19161461180757846040517f57f447ce0000000000000000000000000000000000000000000000000000000081526004016117fe91906121db565b60405180910390fd5b505b505050505050565b6000604051905090565b600080fd5b600080fd5b600073ffffffffffffffffffffffffffffffffffffffff82169050919050565b600061185082611825565b9050919050565b61186081611845565b811461186b57600080fd5b50565b60008135905061187d81611857565b92915050565b6000819050919050565b61189681611883565b81146118a157600080fd5b50565b6000813590506118b38161188d565b92915050565b600080604083850312156118d0576118cf61181b565b5b60006118de8582860161186e565b92505060206118ef858286016118a4565b9150509250929050565b61190281611883565b82525050565b600060208201905061191d60008301846118f9565b92915050565b60007fffffffff0000000000000000000000000000000000000000000000000000000082169050919050565b61195881611923565b811461196357600080fd5b50565b6000813590506119758161194f565b92915050565b6000602082840312156119915761199061181b565b5b600061199f84828501611966565b91505092915050565b60008115159050919050565b6119bd816119a8565b82525050565b60006020820190506119d860008301846119b4565b92915050565b600080fd5b600080fd5b6000601f19601f8301169050919050565b7f4e487b7100000000000000000000000000000000000000000000000000000000600052604160045260246000fd5b611a31826119e8565b810181811067ffffffffffffffff82111715611a5057611a4f6119f9565b5b80604052505050565b6000611a63611811565b9050611a6f8282611a28565b919050565b600067ffffffffffffffff821115611a8f57611a8e6119f9565b5b611a98826119e8565b9050602081019050919050565b82818337600083830152505050565b6000611ac7611ac284611a74565b611a59565b905082815260208101848484011115611ae357611ae26119e3565b5b611aee848285611aa5565b509392505050565b600082601f830112611b0b57611b0a6119de565b5b8135611b1b848260208601611ab4565b91505092915050565b600060208284031215611b3a57611b3961181b565b5b600082013567ffffffffffffffff811115611b5857611b57611820565b5b611b6484828501611af6565b91505092915050565b600060208284031215611b8357611b8261181b565b5b6000611b91848285016118a4565b91505092915050565b600081519050919050565b600082825260208201905092915050565b60005b83811015611bd4578082015181840152602081019050611bb9565b60008484015250505050565b6000611beb82611b9a565b611bf58185611ba5565b9350611c05818560208601611bb6565b611c0e816119e8565b840191505092915050565b60006020820190508181036000830152611c338184611be0565b905092915050565b600067ffffffffffffffff821115611c5657611c556119f9565b5b602082029050602081019050919050565b600080fd5b6000611c7f611c7a84611c3b565b611a59565b90508083825260208201905060208402830185811115611ca257611ca1611c67565b5b835b81811015611ccb5780611cb788826118a4565b845260208401935050602081019050611ca4565b5050509392505050565b600082601f830112611cea57611ce96119de565b5b8135611cfa848260208601611c6c565b91505092915050565b600067ffffffffffffffff821115611d1e57611d1d6119f9565b5b611d27826119e8565b9050602081019050919050565b6000611d47611d4284611d03565b611a59565b905082815260208101848484011115611d6357611d626119e3565b5b611d6e848285611aa5565b509392505050565b600082601f830112611d8b57611d8a6119de565b5b8135611d9b848260208601611d34565b91505092915050565b60008060008060808587031215611dbe57611dbd61181b565b5b6000611dcc8782880161186e565b945050602085013567ffffffffffffffff811115611ded57611dec611820565b5b611df987828801611cd5565b935050604085013567ffffffffffffffff811115611e1a57611e19611820565b5b611e2687828801611cd5565b925050606085013567ffffffffffffffff811115611e4757611e46611820565b5b611e5387828801611d76565b91505092959194509250565b600080600080600060a08688031215611e7b57611e7a61181b565b5b6000611e898882890161186e565b9550506020611e9a8882890161186e565b945050604086013567ffffffffffffffff811115611ebb57611eba611820565b5b611ec788828901611cd5565b935050606086013567ffffffffffffffff811115611ee857611ee7611820565b5b611ef488828901611cd5565b925050608086013567ffffffffffffffff811115611f1557611f14611820565b5b611f2188828901611d76565b9150509295509295909350565b600067ffffffffffffffff821115611f4957611f486119f9565b5b602082029050602081019050919050565b6000611f6d611f6884611f2e565b611a59565b90508083825260208201905060208402830185811115611f9057611f8f611c67565b5b835b81811015611fb95780611fa5888261186e565b845260208401935050602081019050611f92565b5050509392505050565b600082601f830112611fd857611fd76119de565b5b8135611fe8848260208601611f5a565b91505092915050565b600080604083850312156120085761200761181b565b5b600083013567ffffffffffffffff81111561202657612025611820565b5b61203285828601611fc3565b925050602083013567ffffffffffffffff81111561205357612052611820565b5b61205f85828601611cd5565b9150509250929050565b600081519050919050565b600082825260208201905092915050565b6000819050602082019050919050565b61209e81611883565b82525050565b60006120b08383612095565b60208301905092915050565b6000602082019050919050565b60006120d482612069565b6120de8185612074565b93506120e983612085565b8060005b8381101561211a57815161210188826120a4565b975061210c836120bc565b9250506001810190506120ed565b5085935050505092915050565b6000602082019050818103600083015261214181846120c9565b905092915050565b600080600080608085870312156121635761216261181b565b5b60006121718782880161186e565b9450506020612182878288016118a4565b9350506040612193878288016118a4565b925050606085013567ffffffffffffffff8111156121b4576121b3611820565b5b6121c087828801611d76565b91505092959194509250565b6121d581611845565b82525050565b60006020820190506121f060008301846121cc565b92915050565b6121ff816119a8565b811461220a57600080fd5b50565b60008135905061221c816121f6565b92915050565b600080604083850312156122395761223861181b565b5b60006122478582860161186e565b92505060206122588582860161220d565b9150509250929050565b600080604083850312156122795761227861181b565b5b60006122878582860161186e565b92505060206122988582860161186e565b9150509250929050565b600080600080600060a086880312156122be576122bd61181b565b5b60006122cc8882890161186e565b95505060206122dd8882890161186e565b94505060406122ee888289016118a4565b93505060606122ff888289016118a4565b925050608086013567ffffffffffffffff8111156123205761231f611820565b5b61232c88828901611d76565b9150509295509295909350565b60006020828403121561234f5761234e61181b565b5b600061235d8482850161186e565b91505092915050565b7f4e487b7100000000000000000000000000000000000000000000000000000000600052602260045260246000fd5b600060028204905060018216806123ad57607f821691505b6020821081036123c0576123bf612366565b5b50919050565b60006040820190506123db60008301856121cc565b6123e860208301846121cc565b9392505050565b600060408201905061240460008301856118f9565b61241160208301846118f9565b9392505050565b7f4e487b7100000000000000000000000000000000000000000000000000000000600052603260045260246000fd5b60008190508160005260206000209050919050565b60006020601f8301049050919050565b600082821b905092915050565b6000600883026124a97fffffffffffffffffffffffffffffffffffffffffffffffffffffffffffffffff8261246c565b6124b3868361246c565b95508019841693508086168417925050509392505050565b6000819050919050565b60006124f06124eb6124e684611883565b6124cb565b611883565b9050919050565b6000819050919050565b61250a836124d5565b61251e612516826124f7565b848454612479565b825550505050565b600090565b612533612526565b61253e818484612501565b505050565b5b818110156125625761255760008261252b565b600181019050612544565b5050565b601f8211156125a75761257881612447565b6125818461245c565b81016020851015612590578190505b6125a461259c8561245c565b830182612543565b50505b505050565b600082821c905092915050565b60006125ca600019846008026125ac565b1980831691505092915050565b60006125e383836125b9565b9150826002028217905092915050565b6125fc82611b9a565b67ffffffffffffffff811115612615576126146119f9565b5b61261f8254612395565b61262a828285612566565b600060209050601f83116001811461265d576000841561264b578287015190505b61265585826125d7565b8655506126bd565b601f19841661266b86612447565b60005b828110156126935784890151825560018201915060208501945060208101905061266e565b868310156126b057848901516126ac601f8916826125b9565b8355505b6001600288020188555050505b505050505050565b7f4e487b7100000000000000000000000000000000000000000000000000000000600052601160045260246000fd5b60006126ff82611883565b915061270a83611883565b9250828203905081811115612722576127216126c5565b5b92915050565b6000819050919050565b61274361273e82611883565b612728565b82525050565b60008160601b9050919050565b600061276182612749565b9050919050565b600061277382612756565b9050919050565b61278b61278682611845565b612768565b82525050565b600061279d8287612732565b6020820191506127ad8286612732565b6020820191506127bd828561277a565b6014820191506127cd8284612732565b60208201915081905095945050505050565b7f4e487b7100000000000000000000000000000000000000000000000000000000600052601260045260246000fd5b600061281982611883565b915061282483611883565b925082612834576128336127df565b5b828206905092915050565b600060808201905061285460008301876121cc565b61286160208301866118f9565b61286e60408301856118f9565b61287b60608301846118f9565b95945050505050565b600061288f82611883565b915061289a83611883565b92508282019050808211156128b2576128b16126c5565b5b92915050565b600060408201905081810360008301526128d281856120c9565b905081810360208301526128e681846120c9565b90509392505050565b600081519050919050565b600082825260208201905092915050565b6000612916826128ef565b61292081856128fa565b9350612930818560208601611bb6565b612939816119e8565b840191505092915050565b600060a08201905061295960008301886121cc565b61296660208301876121cc565b61297360408301866118f9565b61298060608301856118f9565b8181036080830152612992818461290b565b90509695505050505050565b6000815190506129ad8161194f565b92915050565b6000602082840312156129c9576129c861181b565b5b60006129d78482850161299e565b91505092915050565b600060a0820190506129f560008301886121cc565b612a0260208301876121cc565b8181036040830152612a1481866120c9565b90508181036060830152612a2881856120c9565b90508181036080830152612a3c818461290b565b9050969550505050505056fea26469706673582212200f857fab52c0a22e032eaf304f32e0ba889617b8f5f1ce2a9a789e69a859f48864736f6c6343000818003368747470733a2f2f7261772e67697468756275736572636f6e74656e742e636f6d2f4171726172652f6f772d636f6e74726163742f6d61696e2f6d657461646174612f",
  "linkReferences": {},
  "deployedLinkReferences": {}
}