{
  "_format": "hh-sol-artifact-1",
  "contractName": "YUZUERC1155",
  "sourceName": "contracts/YUZUERC1155.sol",
  "abi": [
    {
      "inputs": [
        {
          "internalType": "address",
          "name": "initialOwner",
          "type": "address"
        }
      ],
      "stateMutability": "nonpayable",
      "type": "constructor"
    },
    {
      "inputs": [
        {
          "internalType": "address",
          "name": "sender",
          "type": "address"
        },
        {
          "internalType": "uint256",
          "name": "balance",
          "type": "uint256"
        },
        {
          "internalType": "uint256",
          "name": "needed",
          "type": "uint256"
        },
        {
          "internalType": "uint256",
          "name": "tokenId",
          "type": "uint256"
        }
      ],
      "name": "ERC1155InsufficientBalance",
      "type": "error"
    },
    {
      "inputs": [
        {
          "internalType": "address",
          "name": "approver",
          "type": "address"
        }
      ],
      "name": "ERC1155InvalidApprover",
      "type": "error"
    },
    {
      "inputs": [
        {
          "internalType": "uint256",
          "name": "idsLength",
          "type": "uint256"
        },
        {
          "internalType": "uint256",
          "name": "valuesLength",
          "type": "uint256"
        }
      ],
      "name": "ERC1155InvalidArrayLength",
      "type": "error"
    },
    {
      "inputs": [
        {
          "internalType": "address",
          "name": "operator",
          "type": "address"
        }
      ],
      "name": "ERC1155InvalidOperator",
      "type": "error"
    },
    {
      "inputs": [
        {
          "internalType": "address",
          "name": "receiver",
          "type": "address"
        }
      ],
      "name": "ERC1155InvalidReceiver",
      "type": "error"
    },
    {
      "inputs": [
        {
          "internalType": "address",
          "name": "sender",
          "type": "address"
        }
      ],
      "name": "ERC1155InvalidSender",
      "type": "error"
    },
    {
      "inputs": [
        {
          "internalType": "address",
          "name": "operator",
          "type": "address"
        },
        {
          "internalType": "address",
          "name": "owner",
          "type": "address"
        }
      ],
      "name": "ERC1155MissingApprovalForAll",
      "type": "error"
    },
    {
      "inputs": [
        {
          "internalType": "address",
          "name": "owner",
          "type": "address"
        }
      ],
      "name": "OwnableInvalidOwner",
      "type": "error"
    },
    {
      "inputs": [
        {
          "internalType": "address",
          "name": "account",
          "type": "address"
        }
      ],
      "name": "OwnableUnauthorizedAccount",
      "type": "error"
    },
    {
      "anonymous": false,
      "inputs": [
        {
          "indexed": true,
          "internalType": "address",
          "name": "account",
          "type": "address"
        },
        {
          "indexed": true,
          "internalType": "address",
          "name": "operator",
          "type": "address"
        },
        {
          "indexed": false,
          "internalType": "bool",
          "name": "approved",
          "type": "bool"
        }
      ],
      "name": "ApprovalForAll",
      "type": "event"
    },
    {
      "anonymous": false,
      "inputs": [
        {
          "indexed": true,
          "internalType": "address",
          "name": "previousOwner",
          "type": "address"
        },
        {
          "indexed": true,
          "internalType": "address",
          "name": "newOwner",
          "type": "address"
        }
      ],
      "name": "OwnershipTransferred",
      "type": "event"
    },
    {
      "anonymous": false,
      "inputs": [
        {
          "indexed": true,
          "internalType": "address",
          "name": "operator",
          "type": "address"
        },
        {
          "indexed": true,
          "internalType": "address",
          "name": "from",
          "type": "address"
        },
        {
          "indexed": true,
          "internalType": "address",
          "name": "to",
          "type": "address"
        },
        {
          "indexed": false,
          "internalType": "uint256[]",
          "name": "ids",
          "type": "uint256[]"
        },
        {
          "indexed": false,
          "internalType": "uint256[]",
          "name": "values",
          "type": "uint256[]"
        }
      ],
      "name": "TransferBatch",
      "type": "event"
    },
    {
      "anonymous": false,
      "inputs": [
        {
          "indexed": true,
          "internalType": "address",
          "name": "operator",
          "type": "address"
        },
        {
          "indexed": true,
          "internalType": "address",
          "name": "from",
          "type": "address"
        },
        {
          "indexed": true,
          "internalType": "address",
          "name": "to",
          "type": "address"
        },
        {
          "indexed": false,
          "internalType": "uint256",
          "name": "id",
          "type": "uint256"
        },
        {
          "indexed": false,
          "internalType": "uint256",
          "name": "value",
          "type": "uint256"
        }
      ],
      "name": "TransferSingle",
      "type": "event"
    },
    {
      "anonymous": false,
      "inputs": [
        {
          "indexed": false,
          "internalType": "string",
          "name": "value",
          "type": "string"
        },
        {
          "indexed": true,
          "internalType": "uint256",
          "name": "id",
          "type": "uint256"
        }
      ],
      "name": "URI",
      "type": "event"
    },
    {
      "inputs": [
        {
          "internalType": "address",
          "name": "account",
          "type": "address"
        },
        {
          "internalType": "uint256",
          "name": "id",
          "type": "uint256"
        }
      ],
      "name": "balanceOf",
      "outputs": [
        {
          "internalType": "uint256",
          "name": "",
          "type": "uint256"
        }
      ],
      "stateMutability": "view",
      "type": "function"
    },
    {
      "inputs": [
        {
          "internalType": "address[]",
          "name": "accounts",
          "type": "address[]"
        },
        {
          "internalType": "uint256[]",
          "name": "ids",
          "type": "uint256[]"
        }
      ],
      "name": "balanceOfBatch",
      "outputs": [
        {
          "internalType": "uint256[]",
          "name": "",
          "type": "uint256[]"
        }
      ],
      "stateMutability": "view",
      "type": "function"
    },
    {
      "inputs": [
        {
          "internalType": "address",
          "name": "account",
          "type": "address"
        },
        {
          "internalType": "address",
          "name": "operator",
          "type": "address"
        }
      ],
      "name": "isApprovedForAll",
      "outputs": [
        {
          "internalType": "bool",
          "name": "",
          "type": "bool"
        }
      ],
      "stateMutability": "view",
      "type": "function"
    },
    {
      "inputs": [
        {
          "internalType": "address",
          "name": "account",
          "type": "address"
        },
        {
          "internalType": "uint256",
          "name": "id",
          "type": "uint256"
        },
        {
          "internalType": "uint256",
          "name": "amount",
          "type": "uint256"
        },
        {
          "internalType": "bytes",
          "name": "data",
          "type": "bytes"
        }
      ],
      "name": "mint",
      "outputs": [],
      "stateMutability": "nonpayable",
      "type": "function"
    },
    {
      "inputs": [
        {
          "internalType": "address",
          "name": "to",
          "type": "address"
        },
        {
          "internalType": "uint256[]",
          "name": "ids",
          "type": "uint256[]"
        },
        {
          "internalType": "uint256[]",
          "name": "amounts",
          "type": "uint256[]"
        },
        {
          "internalType": "bytes",
          "name": "data",
          "type": "bytes"
        }
      ],
      "name": "mintBatch",
      "outputs": [],
      "stateMutability": "nonpayable",
      "type": "function"
    },
    {
      "inputs": [],
      "name": "owner",
      "outputs": [
        {
          "internalType": "address",
          "name": "",
          "type": "address"
        }
      ],
      "stateMutability": "view",
      "type": "function"
    },
    {
      "inputs": [],
      "name": "renounceOwnership",
      "outputs": [],
      "stateMutability": "nonpayable",
      "type": "function"
    },
    {
      "inputs": [
        {
          "internalType": "address",
          "name": "from",
          "type": "address"
        },
        {
          "internalType": "address",
          "name": "to",
          "type": "address"
        },
        {
          "internalType": "uint256[]",
          "name": "ids",
          "type": "uint256[]"
        },
        {
          "internalType": "uint256[]",
          "name": "values",
          "type": "uint256[]"
        },
        {
          "internalType": "bytes",
          "name": "data",
          "type": "bytes"
        }
      ],
      "name": "safeBatchTransferFrom",
      "outputs": [],
      "stateMutability": "nonpayable",
      "type": "function"
    },
    {
      "inputs": [
        {
          "internalType": "address",
          "name": "from",
          "type": "address"
        },
        {
          "internalType": "address",
          "name": "to",
          "type": "address"
        },
        {
          "internalType": "uint256",
          "name": "id",
          "type": "uint256"
        },
        {
          "internalType": "uint256",
          "name": "value",
          "type": "uint256"
        },
        {
          "internalType": "bytes",
          "name": "data",
          "type": "bytes"
        }
      ],
      "name": "safeTransferFrom",
      "outputs": [],
      "stateMutability": "nonpayable",
      "type": "function"
    },
    {
      "inputs": [
        {
          "internalType": "address",
          "name": "operator",
          "type": "address"
        },
        {
          "internalType": "bool",
          "name": "approved",
          "type": "bool"
        }
      ],
      "name": "setApprovalForAll",
      "outputs": [],
      "stateMutability": "nonpayable",
      "type": "function"
    },
    {
      "inputs": [
        {
          "internalType": "bytes4",
          "name": "interfaceId",
          "type": "bytes4"
        }
      ],
      "name": "supportsInterface",
      "outputs": [
        {
          "internalType": "bool",
          "name": "",
          "type": "bool"
        }
      ],
      "stateMutability": "view",
      "type": "function"
    },
    {
      "inputs": [
        {
          "internalType": "address",
          "name": "newOwner",
          "type": "address"
        }
      ],
      "name": "transferOwnership",
      "outputs": [],
      "stateMutability": "nonpayable",
      "type": "function"
    },
    {
      "inputs": [
        {
          "internalType": "uint256",
          "name": "",
          "type": "uint256"
        }
      ],
      "name": "uri",
      "outputs": [
        {
          "internalType": "string",
          "name": "",
          "type": "string"
        }
      ],
      "stateMutability": "view",
      "type": "function"
    }
  ],
  "bytecode": "0x60806040523480156200001157600080fd5b5060405162002ac838038062002ac8833981810160405281019062000037919062000237565b806040518060800160405280604d815260200162002a7b604d91396200006381620000f260201b60201c565b50600073ffffffffffffffffffffffffffffffffffffffff168173ffffffffffffffffffffffffffffffffffffffff1603620000d95760006040517f1e4fbdf7000000000000000000000000000000000000000000000000000000008152600401620000d091906200027a565b60405180910390fd5b620000ea816200010760201b60201c565b5050620005f8565b806002908162000103919062000511565b5050565b6000600360009054906101000a900473ffffffffffffffffffffffffffffffffffffffff16905081600360006101000a81548173ffffffffffffffffffffffffffffffffffffffff021916908373ffffffffffffffffffffffffffffffffffffffff1602179055508173ffffffffffffffffffffffffffffffffffffffff168173ffffffffffffffffffffffffffffffffffffffff167f8be0079c531659141344cd1fd0a4f28419497f9722a3daafe3b4186f6b6457e060405160405180910390a35050565b600080fd5b600073ffffffffffffffffffffffffffffffffffffffff82169050919050565b6000620001ff82620001d2565b9050919050565b6200021181620001f2565b81146200021d57600080fd5b50565b600081519050620002318162000206565b92915050565b60006020828403121562000250576200024f620001cd565b5b6000620002608482850162000220565b91505092915050565b6200027481620001f2565b82525050565b600060208201905062000291600083018462000269565b92915050565b600081519050919050565b7f4e487b7100000000000000000000000000000000000000000000000000000000600052604160045260246000fd5b7f4e487b7100000000000000000000000000000000000000000000000000000000600052602260045260246000fd5b600060028204905060018216806200031957607f821691505b6020821081036200032f576200032e620002d1565b5b50919050565b60008190508160005260206000209050919050565b60006020601f8301049050919050565b600082821b905092915050565b600060088302620003997fffffffffffffffffffffffffffffffffffffffffffffffffffffffffffffffff826200035a565b620003a586836200035a565b95508019841693508086168417925050509392505050565b6000819050919050565b6000819050919050565b6000620003f2620003ec620003e684620003bd565b620003c7565b620003bd565b9050919050565b6000819050919050565b6200040e83620003d1565b620004266200041d82620003f9565b84845462000367565b825550505050565b600090565b6200043d6200042e565b6200044a81848462000403565b505050565b5b8181101562000472576200046660008262000433565b60018101905062000450565b5050565b601f821115620004c1576200048b8162000335565b62000496846200034a565b81016020851015620004a6578190505b620004be620004b5856200034a565b8301826200044f565b50505b505050565b600082821c905092915050565b6000620004e660001984600802620004c6565b1980831691505092915050565b6000620005018383620004d3565b9150826002028217905092915050565b6200051c8262000297565b67ffffffffffffffff811115620005385762000537620002a2565b5b62000544825462000300565b6200055182828562000476565b600060209050601f83116001811462000589576000841562000574578287015190505b620005808582620004f3565b865550620005f0565b601f198416620005998662000335565b60005b82811015620005c3578489015182556001820191506020850194506020810190506200059c565b86831015620005e35784890151620005df601f891682620004d3565b8355505b6001600288020188555050505b505050505050565b61247380620006086000396000f3fe608060405234801561001057600080fd5b50600436106100ce5760003560e01c8063715018a61161008c578063a22cb46511610066578063a22cb4651461020f578063e985e9c51461022b578063f242432a1461025b578063f2fde38b14610277576100ce565b8063715018a6146101cb578063731133e9146101d55780638da5cb5b146101f1576100ce565b8062fdd58e146100d357806301ffc9a7146101035780630e89341c146101335780631f7fdffa146101635780632eb2c2d61461017f5780634e1273f41461019b575b600080fd5b6100ed60048036038101906100e89190611761565b610293565b6040516100fa91906117b0565b60405180910390f35b61011d60048036038101906101189190611823565b6102ed565b60405161012a919061186b565b60405180910390f35b61014d60048036038101906101489190611886565b6103cf565b60405161015a9190611943565b60405180910390f35b61017d60048036038101906101789190611b62565b610463565b005b61019960048036038101906101949190611c1d565b610475565b005b6101b560048036038101906101b09190611daf565b61051d565b6040516101c29190611ee5565b60405180910390f35b6101d3610626565b005b6101ef60048036038101906101ea9190611f07565b61063a565b005b6101f961064c565b6040516102069190611f99565b60405180910390f35b61022960048036038101906102249190611fe0565b610676565b005b61024560048036038101906102409190612020565b61068c565b604051610252919061186b565b60405180910390f35b61027560048036038101906102709190612060565b610720565b005b610291600480360381019061028c91906120f7565b6107c8565b005b600080600083815260200190815260200160002060008473ffffffffffffffffffffffffffffffffffffffff1673ffffffffffffffffffffffffffffffffffffffff16815260200190815260200160002054905092915050565b60007fd9b67a26000000000000000000000000000000000000000000000000000000007bffffffffffffffffffffffffffffffffffffffffffffffffffffffff1916827bffffffffffffffffffffffffffffffffffffffffffffffffffffffff191614806103b857507f0e89341c000000000000000000000000000000000000000000000000000000007bffffffffffffffffffffffffffffffffffffffffffffffffffffffff1916827bffffffffffffffffffffffffffffffffffffffffffffffffffffffff1916145b806103c857506103c78261084e565b5b9050919050565b6060600280546103de90612153565b80601f016020809104026020016040519081016040528092919081815260200182805461040a90612153565b80156104575780601f1061042c57610100808354040283529160200191610457565b820191906000526020600020905b81548152906001019060200180831161043a57829003601f168201915b50505050509050919050565b61046f848484846108b8565b50505050565b600061047f61093e565b90508073ffffffffffffffffffffffffffffffffffffffff168673ffffffffffffffffffffffffffffffffffffffff16141580156104c457506104c2868261068c565b155b156105085780866040517fe237d9220000000000000000000000000000000000000000000000000000000081526004016104ff929190612184565b60405180910390fd5b6105158686868686610946565b505050505050565b6060815183511461056957815183516040517f5b0599910000000000000000000000000000000000000000000000000000000081526004016105609291906121ad565b60405180910390fd5b6000835167ffffffffffffffff8111156105865761058561196a565b5b6040519080825280602002602001820160405280156105b45781602001602082028036833780820191505090505b50905060005b845181101561061b576105f16105d98287610a3e90919063ffffffff16565b6105ec8387610a5290919063ffffffff16565b610293565b828281518110610604576106036121d6565b5b6020026020010181815250508060010190506105ba565b508091505092915050565b61062e610a66565b6106386000610aed565b565b61064684848484610bb3565b50505050565b6000600360009054906101000a900473ffffffffffffffffffffffffffffffffffffffff16905090565b61068861068161093e565b8383610c4c565b5050565b6000600160008473ffffffffffffffffffffffffffffffffffffffff1673ffffffffffffffffffffffffffffffffffffffff16815260200190815260200160002060008373ffffffffffffffffffffffffffffffffffffffff1673ffffffffffffffffffffffffffffffffffffffff16815260200190815260200160002060009054906101000a900460ff16905092915050565b600061072a61093e565b90508073ffffffffffffffffffffffffffffffffffffffff168673ffffffffffffffffffffffffffffffffffffffff161415801561076f575061076d868261068c565b155b156107b35780866040517fe237d9220000000000000000000000000000000000000000000000000000000081526004016107aa929190612184565b60405180910390fd5b6107c08686868686610dbc565b505050505050565b6107d0610a66565b600073ffffffffffffffffffffffffffffffffffffffff168173ffffffffffffffffffffffffffffffffffffffff16036108425760006040517f1e4fbdf70000000000000000000000000000000000000000000000000000000081526004016108399190611f99565b60405180910390fd5b61084b81610aed565b50565b60007f01ffc9a7000000000000000000000000000000000000000000000000000000007bffffffffffffffffffffffffffffffffffffffffffffffffffffffff1916827bffffffffffffffffffffffffffffffffffffffffffffffffffffffff1916149050919050565b600073ffffffffffffffffffffffffffffffffffffffff168473ffffffffffffffffffffffffffffffffffffffff160361092a5760006040517f57f447ce0000000000000000000000000000000000000000000000000000000081526004016109219190611f99565b60405180910390fd5b610938600085858585610ec7565b50505050565b600033905090565b600073ffffffffffffffffffffffffffffffffffffffff168473ffffffffffffffffffffffffffffffffffffffff16036109b85760006040517f57f447ce0000000000000000000000000000000000000000000000000000000081526004016109af9190611f99565b60405180910390fd5b600073ffffffffffffffffffffffffffffffffffffffff168573ffffffffffffffffffffffffffffffffffffffff1603610a2a5760006040517f01a83514000000000000000000000000000000000000000000000000000000008152600401610a219190611f99565b60405180910390fd5b610a378585858585610ec7565b5050505050565b600060208202602084010151905092915050565b600060208202602084010151905092915050565b610a6e61093e565b73ffffffffffffffffffffffffffffffffffffffff16610a8c61064c565b73ffffffffffffffffffffffffffffffffffffffff1614610aeb57610aaf61093e565b6040517f118cdaa7000000000000000000000000000000000000000000000000000000008152600401610ae29190611f99565b60405180910390fd5b565b6000600360009054906101000a900473ffffffffffffffffffffffffffffffffffffffff16905081600360006101000a81548173ffffffffffffffffffffffffffffffffffffffff021916908373ffffffffffffffffffffffffffffffffffffffff1602179055508173ffffffffffffffffffffffffffffffffffffffff168173ffffffffffffffffffffffffffffffffffffffff167f8be0079c531659141344cd1fd0a4f28419497f9722a3daafe3b4186f6b6457e060405160405180910390a35050565b600073ffffffffffffffffffffffffffffffffffffffff168473ffffffffffffffffffffffffffffffffffffffff1603610c255760006040517f57f447ce000000000000000000000000000000000000000000000000000000008152600401610c1c9190611f99565b60405180910390fd5b600080610c328585610f79565b91509150610c44600087848487610ec7565b505050505050565b600073ffffffffffffffffffffffffffffffffffffffff168273ffffffffffffffffffffffffffffffffffffffff1603610cbe5760006040517fced3e100000000000000000000000000000000000000000000000000000000008152600401610cb59190611f99565b60405180910390fd5b80600160008573ffffffffffffffffffffffffffffffffffffffff1673ffffffffffffffffffffffffffffffffffffffff16815260200190815260200160002060008473ffffffffffffffffffffffffffffffffffffffff1673ffffffffffffffffffffffffffffffffffffffff16815260200190815260200160002060006101000a81548160ff0219169083151502179055508173ffffffffffffffffffffffffffffffffffffffff168373ffffffffffffffffffffffffffffffffffffffff167f17307eab39ab6107e8899845ad3d59bd9653f200f220920489ca2b5937696c3183604051610daf919061186b565b60405180910390a3505050565b600073ffffffffffffffffffffffffffffffffffffffff168473ffffffffffffffffffffffffffffffffffffffff1603610e2e5760006040517f57f447ce000000000000000000000000000000000000000000000000000000008152600401610e259190611f99565b60405180910390fd5b600073ffffffffffffffffffffffffffffffffffffffff168573ffffffffffffffffffffffffffffffffffffffff1603610ea05760006040517f01a83514000000000000000000000000000000000000000000000000000000008152600401610e979190611f99565b60405180910390fd5b600080610ead8585610f79565b91509150610ebe8787848487610ec7565b50505050505050565b610ed385858585610fa9565b600073ffffffffffffffffffffffffffffffffffffffff168473ffffffffffffffffffffffffffffffffffffffff1614610f72576000610f1161093e565b90506001845103610f61576000610f32600086610a5290919063ffffffff16565b90506000610f4a600086610a5290919063ffffffff16565b9050610f5a838989858589611351565b5050610f70565b610f6f818787878787611505565b5b505b5050505050565b60608060405191506001825283602083015260408201905060018152826020820152604081016040529250929050565b8051825114610ff357815181516040517f5b059991000000000000000000000000000000000000000000000000000000008152600401610fea9291906121ad565b60405180910390fd5b6000610ffd61093e565b905060005b835181101561120c5760006110208286610a5290919063ffffffff16565b905060006110378386610a5290919063ffffffff16565b9050600073ffffffffffffffffffffffffffffffffffffffff168873ffffffffffffffffffffffffffffffffffffffff161461116457600080600084815260200190815260200160002060008a73ffffffffffffffffffffffffffffffffffffffff1673ffffffffffffffffffffffffffffffffffffffff1681526020019081526020016000205490508181101561110c57888183856040517f03dee4c50000000000000000000000000000000000000000000000000000000081526004016111039493929190612205565b60405180910390fd5b81810360008085815260200190815260200160002060008b73ffffffffffffffffffffffffffffffffffffffff1673ffffffffffffffffffffffffffffffffffffffff16815260200190815260200160002081905550505b600073ffffffffffffffffffffffffffffffffffffffff168773ffffffffffffffffffffffffffffffffffffffff16146111ff578060008084815260200190815260200160002060008973ffffffffffffffffffffffffffffffffffffffff1673ffffffffffffffffffffffffffffffffffffffff16815260200190815260200160002060008282546111f79190612279565b925050819055505b5050806001019050611002565b5060018351036112cb57600061122c600085610a5290919063ffffffff16565b90506000611244600085610a5290919063ffffffff16565b90508573ffffffffffffffffffffffffffffffffffffffff168773ffffffffffffffffffffffffffffffffffffffff168473ffffffffffffffffffffffffffffffffffffffff167fc3d58168c5ae7397731d063d5bbf3d657854427343f4c083240f7aacaa2d0f6285856040516112bc9291906121ad565b60405180910390a4505061134a565b8373ffffffffffffffffffffffffffffffffffffffff168573ffffffffffffffffffffffffffffffffffffffff168273ffffffffffffffffffffffffffffffffffffffff167f4a39dc06d4c0dbc64b70af90fd698a233a518aa5d07e595d983b8c0526c8f7fb86866040516113419291906122ad565b60405180910390a45b5050505050565b60008473ffffffffffffffffffffffffffffffffffffffff163b11156114fd578373ffffffffffffffffffffffffffffffffffffffff1663f23a6e6187878686866040518663ffffffff1660e01b81526004016113b2959493929190612339565b6020604051808303816000875af19250505080156113ee57506040513d601f19601f820116820180604052508101906113eb91906123a8565b60015b611472573d806000811461141e576040519150601f19603f3d011682016040523d82523d6000602084013e611423565b606091505b50600081510361146a57846040517f57f447ce0000000000000000000000000000000000000000000000000000000081526004016114619190611f99565b60405180910390fd5b805181602001fd5b63f23a6e6160e01b7bffffffffffffffffffffffffffffffffffffffffffffffffffffffff1916817bffffffffffffffffffffffffffffffffffffffffffffffffffffffff1916146114fb57846040517f57f447ce0000000000000000000000000000000000000000000000000000000081526004016114f29190611f99565b60405180910390fd5b505b505050505050565b60008473ffffffffffffffffffffffffffffffffffffffff163b11156116b1578373ffffffffffffffffffffffffffffffffffffffff1663bc197c8187878686866040518663ffffffff1660e01b81526004016115669594939291906123d5565b6020604051808303816000875af19250505080156115a257506040513d601f19601f8201168201806040525081019061159f91906123a8565b60015b611626573d80600081146115d2576040519150601f19603f3d011682016040523d82523d6000602084013e6115d7565b606091505b50600081510361161e57846040517f57f447ce0000000000000000000000000000000000000000000000000000000081526004016116159190611f99565b60405180910390fd5b805181602001fd5b63bc197c8160e01b7bffffffffffffffffffffffffffffffffffffffffffffffffffffffff1916817bffffffffffffffffffffffffffffffffffffffffffffffffffffffff1916146116af57846040517f57f447ce0000000000000000000000000000000000000000000000000000000081526004016116a69190611f99565b60405180910390fd5b505b505050505050565b6000604051905090565b600080fd5b600080fd5b600073ffffffffffffffffffffffffffffffffffffffff82169050919050565b60006116f8826116cd565b9050919050565b611708816116ed565b811461171357600080fd5b50565b600081359050611725816116ff565b92915050565b6000819050919050565b61173e8161172b565b811461174957600080fd5b50565b60008135905061175b81611735565b92915050565b60008060408385031215611778576117776116c3565b5b600061178685828601611716565b92505060206117978582860161174c565b9150509250929050565b6117aa8161172b565b82525050565b60006020820190506117c560008301846117a1565b92915050565b60007fffffffff0000000000000000000000000000000000000000000000000000000082169050919050565b611800816117cb565b811461180b57600080fd5b50565b60008135905061181d816117f7565b92915050565b600060208284031215611839576118386116c3565b5b60006118478482850161180e565b91505092915050565b60008115159050919050565b61186581611850565b82525050565b6000602082019050611880600083018461185c565b92915050565b60006020828403121561189c5761189b6116c3565b5b60006118aa8482850161174c565b91505092915050565b600081519050919050565b600082825260208201905092915050565b60005b838110156118ed5780820151818401526020810190506118d2565b60008484015250505050565b6000601f19601f8301169050919050565b6000611915826118b3565b61191f81856118be565b935061192f8185602086016118cf565b611938816118f9565b840191505092915050565b6000602082019050818103600083015261195d818461190a565b905092915050565b600080fd5b7f4e487b7100000000000000000000000000000000000000000000000000000000600052604160045260246000fd5b6119a2826118f9565b810181811067ffffffffffffffff821117156119c1576119c061196a565b5b80604052505050565b60006119d46116b9565b90506119e08282611999565b919050565b600067ffffffffffffffff821115611a00576119ff61196a565b5b602082029050602081019050919050565b600080fd5b6000611a29611a24846119e5565b6119ca565b90508083825260208201905060208402830185811115611a4c57611a4b611a11565b5b835b81811015611a755780611a61888261174c565b845260208401935050602081019050611a4e565b5050509392505050565b600082601f830112611a9457611a93611965565b5b8135611aa4848260208601611a16565b91505092915050565b600080fd5b600067ffffffffffffffff821115611acd57611acc61196a565b5b611ad6826118f9565b9050602081019050919050565b82818337600083830152505050565b6000611b05611b0084611ab2565b6119ca565b905082815260208101848484011115611b2157611b20611aad565b5b611b2c848285611ae3565b509392505050565b600082601f830112611b4957611b48611965565b5b8135611b59848260208601611af2565b91505092915050565b60008060008060808587031215611b7c57611b7b6116c3565b5b6000611b8a87828801611716565b945050602085013567ffffffffffffffff811115611bab57611baa6116c8565b5b611bb787828801611a7f565b935050604085013567ffffffffffffffff811115611bd857611bd76116c8565b5b611be487828801611a7f565b925050606085013567ffffffffffffffff811115611c0557611c046116c8565b5b611c1187828801611b34565b91505092959194509250565b600080600080600060a08688031215611c3957611c386116c3565b5b6000611c4788828901611716565b9550506020611c5888828901611716565b945050604086013567ffffffffffffffff811115611c7957611c786116c8565b5b611c8588828901611a7f565b935050606086013567ffffffffffffffff811115611ca657611ca56116c8565b5b611cb288828901611a7f565b925050608086013567ffffffffffffffff811115611cd357611cd26116c8565b5b611cdf88828901611b34565b9150509295509295909350565b600067ffffffffffffffff821115611d0757611d0661196a565b5b602082029050602081019050919050565b6000611d2b611d2684611cec565b6119ca565b90508083825260208201905060208402830185811115611d4e57611d4d611a11565b5b835b81811015611d775780611d638882611716565b845260208401935050602081019050611d50565b5050509392505050565b600082601f830112611d9657611d95611965565b5b8135611da6848260208601611d18565b91505092915050565b60008060408385031215611dc657611dc56116c3565b5b600083013567ffffffffffffffff811115611de457611de36116c8565b5b611df085828601611d81565b925050602083013567ffffffffffffffff811115611e1157611e106116c8565b5b611e1d85828601611a7f565b9150509250929050565b600081519050919050565b600082825260208201905092915050565b6000819050602082019050919050565b611e5c8161172b565b82525050565b6000611e6e8383611e53565b60208301905092915050565b6000602082019050919050565b6000611e9282611e27565b611e9c8185611e32565b9350611ea783611e43565b8060005b83811015611ed8578151611ebf8882611e62565b9750611eca83611e7a565b925050600181019050611eab565b5085935050505092915050565b60006020820190508181036000830152611eff8184611e87565b905092915050565b60008060008060808587031215611f2157611f206116c3565b5b6000611f2f87828801611716565b9450506020611f408782880161174c565b9350506040611f518782880161174c565b925050606085013567ffffffffffffffff811115611f7257611f716116c8565b5b611f7e87828801611b34565b91505092959194509250565b611f93816116ed565b82525050565b6000602082019050611fae6000830184611f8a565b92915050565b611fbd81611850565b8114611fc857600080fd5b50565b600081359050611fda81611fb4565b92915050565b60008060408385031215611ff757611ff66116c3565b5b600061200585828601611716565b925050602061201685828601611fcb565b9150509250929050565b60008060408385031215612037576120366116c3565b5b600061204585828601611716565b925050602061205685828601611716565b9150509250929050565b600080600080600060a0868803121561207c5761207b6116c3565b5b600061208a88828901611716565b955050602061209b88828901611716565b94505060406120ac8882890161174c565b93505060606120bd8882890161174c565b925050608086013567ffffffffffffffff8111156120de576120dd6116c8565b5b6120ea88828901611b34565b9150509295509295909350565b60006020828403121561210d5761210c6116c3565b5b600061211b84828501611716565b91505092915050565b7f4e487b7100000000000000000000000000000000000000000000000000000000600052602260045260246000fd5b6000600282049050600182168061216b57607f821691505b60208210810361217e5761217d612124565b5b50919050565b60006040820190506121996000830185611f8a565b6121a66020830184611f8a565b9392505050565b60006040820190506121c260008301856117a1565b6121cf60208301846117a1565b9392505050565b7f4e487b7100000000000000000000000000000000000000000000000000000000600052603260045260246000fd5b600060808201905061221a6000830187611f8a565b61222760208301866117a1565b61223460408301856117a1565b61224160608301846117a1565b95945050505050565b7f4e487b7100000000000000000000000000000000000000000000000000000000600052601160045260246000fd5b60006122848261172b565b915061228f8361172b565b92508282019050808211156122a7576122a661224a565b5b92915050565b600060408201905081810360008301526122c78185611e87565b905081810360208301526122db8184611e87565b90509392505050565b600081519050919050565b600082825260208201905092915050565b600061230b826122e4565b61231581856122ef565b93506123258185602086016118cf565b61232e816118f9565b840191505092915050565b600060a08201905061234e6000830188611f8a565b61235b6020830187611f8a565b61236860408301866117a1565b61237560608301856117a1565b81810360808301526123878184612300565b90509695505050505050565b6000815190506123a2816117f7565b92915050565b6000602082840312156123be576123bd6116c3565b5b60006123cc84828501612393565b91505092915050565b600060a0820190506123ea6000830188611f8a565b6123f76020830187611f8a565b81810360408301526124098186611e87565b9050818103606083015261241d8185611e87565b905081810360808301526124318184612300565b9050969550505050505056fea264697066735822122077b650ff05f9768f27d1999d8d3d55af26c04cff7a4450c2492bf811623a3cf764736f6c6343000818003368747470733a2f2f7062732e7477696d672e636f6d2f70726f66696c655f696d616765732f313531373231303332353730373337303439362f76715958577549315f343030783430302e6a7067",
  "linkReferences": {},
  "deployedLinkReferences": {}
}